{
	"contracts/nomadapp/nomadapp.sol": {
		"nomadapp": {
			"abi": [
				{
					"inputs": [],
					"stateMutability": "payable",
					"type": "constructor"
				},
				{
					"inputs": [],
					"name": "invalid_state",
					"type": "error"
				},
				{
					"inputs": [],
					"name": "just_cash_provider",
					"type": "error"
				},
				{
					"inputs": [],
					"name": "just_nomada",
					"type": "error"
				},
				{
					"inputs": [],
					"name": "abort",
					"outputs": [],
					"stateMutability": "nonpayable",
					"type": "function"
				},
				{
					"inputs": [],
					"name": "cash_provider",
					"outputs": [
						{
							"internalType": "address payable",
							"name": "",
							"type": "address"
						}
					],
					"stateMutability": "view",
					"type": "function"
				},
				{
					"inputs": [],
					"name": "cash_provider_confirm_transaction",
					"outputs": [],
					"stateMutability": "payable",
					"type": "function"
				},
				{
					"inputs": [],
					"name": "confirm_received",
					"outputs": [],
					"stateMutability": "nonpayable",
					"type": "function"
				},
				{
					"inputs": [],
					"name": "contract_status",
					"outputs": [
						{
							"internalType": "enum nomadapp.state",
							"name": "",
							"type": "uint8"
						}
					],
					"stateMutability": "view",
					"type": "function"
				},
				{
					"inputs": [],
					"name": "get_time_left",
					"outputs": [
						{
							"internalType": "uint256",
							"name": "",
							"type": "uint256"
						}
					],
					"stateMutability": "view",
					"type": "function"
				},
				{
					"inputs": [],
					"name": "money_to_change",
					"outputs": [
						{
							"internalType": "uint256",
							"name": "",
							"type": "uint256"
						}
					],
					"stateMutability": "view",
					"type": "function"
				},
				{
					"inputs": [],
					"name": "nomada",
					"outputs": [
						{
							"internalType": "address payable",
							"name": "",
							"type": "address"
						}
					],
					"stateMutability": "view",
					"type": "function"
				},
				{
					"inputs": [],
					"name": "show_balance",
					"outputs": [
						{
							"internalType": "uint256",
							"name": "",
							"type": "uint256"
						}
					],
					"stateMutability": "view",
					"type": "function"
				}
			],
			"devdoc": {
				"kind": "dev",
				"methods": {},
				"version": 1
			},
			"evm": {
				"assembly": "    /* \"contracts/nomadapp/nomadapp.sol\":59:2693  contract nomadapp {... */\n  mstore(0x40, 0x80)\n    /* \"contracts/nomadapp/nomadapp.sol\":390:400  msg.sender */\n  caller\n    /* \"contracts/nomadapp/nomadapp.sol\":373:379  nomada */\n  0x01\n  0x00\n    /* \"contracts/nomadapp/nomadapp.sol\":373:401  nomada = payable(msg.sender) */\n  0x0100\n  exp\n  dup2\n  sload\n  dup2\n  0xffffffffffffffffffffffffffffffffffffffff\n  mul\n  not\n  and\n  swap1\n  dup4\n  0xffffffffffffffffffffffffffffffffffffffff\n  and\n  mul\n  or\n  swap1\n  sstore\n  pop\n    /* \"contracts/nomadapp/nomadapp.sol\":429:442  state.created */\n  0x00\n    /* \"contracts/nomadapp/nomadapp.sol\":411:426  contract_status */\n  0x05\n  0x00\n    /* \"contracts/nomadapp/nomadapp.sol\":411:442  contract_status = state.created */\n  0x0100\n  exp\n  dup2\n  sload\n  dup2\n  0xff\n  mul\n  not\n  and\n  swap1\n  dup4\n  0x03\n  dup2\n  gt\n  iszero\n  tag_3\n  jumpi\n  tag_4\n  tag_5\n  jump\t// in\ntag_4:\ntag_3:\n  mul\n  or\n  swap1\n  sstore\n  pop\n    /* \"contracts/nomadapp/nomadapp.sol\":470:479  msg.value */\n  callvalue\n    /* \"contracts/nomadapp/nomadapp.sol\":452:467  money_to_change */\n  0x00\n    /* \"contracts/nomadapp/nomadapp.sol\":452:479  money_to_change = msg.value */\n  dup2\n  swap1\n  sstore\n  pop\n    /* \"contracts/nomadapp/nomadapp.sol\":502:517  block.timestamp */\n  timestamp\n    /* \"contracts/nomadapp/nomadapp.sol\":489:499  start_time */\n  0x03\n    /* \"contracts/nomadapp/nomadapp.sol\":489:517  start_time = block.timestamp */\n  dup2\n  swap1\n  sstore\n  pop\n    /* \"contracts/nomadapp/nomadapp.sol\":552:563  8 * 1 hours */\n  0x7080\n    /* \"contracts/nomadapp/nomadapp.sol\":538:548  start_time */\n  sload(0x03)\n    /* \"contracts/nomadapp/nomadapp.sol\":538:564  start_time + (8 * 1 hours) */\n  tag_6\n  swap2\n  swap1\n  tag_7\n  jump\t// in\ntag_6:\n    /* \"contracts/nomadapp/nomadapp.sol\":527:535  end_time */\n  0x04\n    /* \"contracts/nomadapp/nomadapp.sol\":527:564  end_time = start_time + (8 * 1 hours) */\n  dup2\n  swap1\n  sstore\n  pop\n    /* \"contracts/nomadapp/nomadapp.sol\":59:2693  contract nomadapp {... */\n  jump(tag_8)\n    /* \"#utility.yul\":7:187   */\ntag_5:\n    /* \"#utility.yul\":55:132   */\n  0x4e487b7100000000000000000000000000000000000000000000000000000000\n    /* \"#utility.yul\":52:53   */\n  0x00\n    /* \"#utility.yul\":45:133   */\n  mstore\n    /* \"#utility.yul\":152:156   */\n  0x21\n    /* \"#utility.yul\":149:150   */\n  0x04\n    /* \"#utility.yul\":142:157   */\n  mstore\n    /* \"#utility.yul\":176:180   */\n  0x24\n    /* \"#utility.yul\":173:174   */\n  0x00\n    /* \"#utility.yul\":166:181   */\n  revert\n    /* \"#utility.yul\":193:270   */\ntag_9:\n    /* \"#utility.yul\":230:237   */\n  0x00\n    /* \"#utility.yul\":259:264   */\n  dup2\n    /* \"#utility.yul\":248:264   */\n  swap1\n  pop\n    /* \"#utility.yul\":193:270   */\n  swap2\n  swap1\n  pop\n  jump\t// out\n    /* \"#utility.yul\":276:456   */\ntag_10:\n    /* \"#utility.yul\":324:401   */\n  0x4e487b7100000000000000000000000000000000000000000000000000000000\n    /* \"#utility.yul\":321:322   */\n  0x00\n    /* \"#utility.yul\":314:402   */\n  mstore\n    /* \"#utility.yul\":421:425   */\n  0x11\n    /* \"#utility.yul\":418:419   */\n  0x04\n    /* \"#utility.yul\":411:426   */\n  mstore\n    /* \"#utility.yul\":445:449   */\n  0x24\n    /* \"#utility.yul\":442:443   */\n  0x00\n    /* \"#utility.yul\":435:450   */\n  revert\n    /* \"#utility.yul\":462:653   */\ntag_7:\n    /* \"#utility.yul\":502:505   */\n  0x00\n    /* \"#utility.yul\":521:541   */\n  tag_16\n    /* \"#utility.yul\":539:540   */\n  dup3\n    /* \"#utility.yul\":521:541   */\n  tag_9\n  jump\t// in\ntag_16:\n    /* \"#utility.yul\":516:541   */\n  swap2\n  pop\n    /* \"#utility.yul\":555:575   */\n  tag_17\n    /* \"#utility.yul\":573:574   */\n  dup4\n    /* \"#utility.yul\":555:575   */\n  tag_9\n  jump\t// in\ntag_17:\n    /* \"#utility.yul\":550:575   */\n  swap3\n  pop\n    /* \"#utility.yul\":598:599   */\n  dup3\n    /* \"#utility.yul\":595:596   */\n  dup3\n    /* \"#utility.yul\":591:600   */\n  add\n    /* \"#utility.yul\":584:600   */\n  swap1\n  pop\n    /* \"#utility.yul\":619:622   */\n  dup1\n    /* \"#utility.yul\":616:617   */\n  dup3\n    /* \"#utility.yul\":613:623   */\n  gt\n    /* \"#utility.yul\":610:646   */\n  iszero\n  tag_18\n  jumpi\n    /* \"#utility.yul\":626:644   */\n  tag_19\n  tag_10\n  jump\t// in\ntag_19:\n    /* \"#utility.yul\":610:646   */\ntag_18:\n    /* \"#utility.yul\":462:653   */\n  swap3\n  swap2\n  pop\n  pop\n  jump\t// out\n    /* \"contracts/nomadapp/nomadapp.sol\":59:2693  contract nomadapp {... */\ntag_8:\n  dataSize(sub_0)\n  dup1\n  dataOffset(sub_0)\n  0x00\n  codecopy\n  0x00\n  return\nstop\n\nsub_0: assembly {\n        /* \"contracts/nomadapp/nomadapp.sol\":59:2693  contract nomadapp {... */\n      mstore(0x40, 0x80)\n      jumpi(tag_1, lt(calldatasize, 0x04))\n      shr(0xe0, calldataload(0x00))\n      dup1\n      0x8f9d1da9\n      gt\n      tag_11\n      jumpi\n      dup1\n      0x8f9d1da9\n      eq\n      tag_6\n      jumpi\n      dup1\n      0x946d0149\n      eq\n      tag_7\n      jumpi\n      dup1\n      0x9f368e73\n      eq\n      tag_8\n      jumpi\n      dup1\n      0xc4ae788b\n      eq\n      tag_9\n      jumpi\n      dup1\n      0xe07f63a1\n      eq\n      tag_10\n      jumpi\n      jump(tag_1)\n    tag_11:\n      dup1\n      0x1af52a25\n      eq\n      tag_2\n      jumpi\n      dup1\n      0x2b1bf48f\n      eq\n      tag_3\n      jumpi\n      dup1\n      0x35a063b4\n      eq\n      tag_4\n      jumpi\n      dup1\n      0x7602065f\n      eq\n      tag_5\n      jumpi\n    tag_1:\n      0x00\n      dup1\n      revert\n        /* \"contracts/nomadapp/nomadapp.sol\":152:188  address payable public cash_provider */\n    tag_2:\n      callvalue\n      dup1\n      iszero\n      tag_12\n      jumpi\n      0x00\n      dup1\n      revert\n    tag_12:\n      pop\n      tag_13\n      tag_14\n      jump\t// in\n    tag_13:\n      mload(0x40)\n      tag_15\n      swap2\n      swap1\n      tag_16\n      jump\t// in\n    tag_15:\n      mload(0x40)\n      dup1\n      swap2\n      sub\n      swap1\n      return\n        /* \"contracts/nomadapp/nomadapp.sol\":306:334  state public contract_status */\n    tag_3:\n      callvalue\n      dup1\n      iszero\n      tag_17\n      jumpi\n      0x00\n      dup1\n      revert\n    tag_17:\n      pop\n      tag_18\n      tag_19\n      jump\t// in\n    tag_18:\n      mload(0x40)\n      tag_20\n      swap2\n      swap1\n      tag_21\n      jump\t// in\n    tag_20:\n      mload(0x40)\n      dup1\n      swap2\n      sub\n      swap1\n      return\n        /* \"contracts/nomadapp/nomadapp.sol\":2001:2462  function abort() external {... */\n    tag_4:\n      callvalue\n      dup1\n      iszero\n      tag_22\n      jumpi\n      0x00\n      dup1\n      revert\n    tag_22:\n      pop\n      tag_23\n      tag_24\n      jump\t// in\n    tag_23:\n      stop\n        /* \"contracts/nomadapp/nomadapp.sol\":117:146  address payable public nomada */\n    tag_5:\n      callvalue\n      dup1\n      iszero\n      tag_25\n      jumpi\n      0x00\n      dup1\n      revert\n    tag_25:\n      pop\n      tag_26\n      tag_27\n      jump\t// in\n    tag_26:\n      mload(0x40)\n      tag_28\n      swap2\n      swap1\n      tag_16\n      jump\t// in\n    tag_28:\n      mload(0x40)\n      dup1\n      swap2\n      sub\n      swap1\n      return\n        /* \"contracts/nomadapp/nomadapp.sol\":1696:1994  function confirm_received() external only_cash_provider() in_state(state.locked) time_over() {... */\n    tag_6:\n      callvalue\n      dup1\n      iszero\n      tag_29\n      jumpi\n      0x00\n      dup1\n      revert\n    tag_29:\n      pop\n      tag_30\n      tag_31\n      jump\t// in\n    tag_30:\n      stop\n        /* \"contracts/nomadapp/nomadapp.sol\":2587:2683  function show_balance () public view returns(uint) {... */\n    tag_7:\n      callvalue\n      dup1\n      iszero\n      tag_32\n      jumpi\n      0x00\n      dup1\n      revert\n    tag_32:\n      pop\n      tag_33\n      tag_34\n      jump\t// in\n    tag_33:\n      mload(0x40)\n      tag_35\n      swap2\n      swap1\n      tag_36\n      jump\t// in\n    tag_35:\n      mload(0x40)\n      dup1\n      swap2\n      sub\n      swap1\n      return\n        /* \"contracts/nomadapp/nomadapp.sol\":84:111  uint public money_to_change */\n    tag_8:\n      callvalue\n      dup1\n      iszero\n      tag_37\n      jumpi\n      0x00\n      dup1\n      revert\n    tag_37:\n      pop\n      tag_38\n      tag_39\n      jump\t// in\n    tag_38:\n      mload(0x40)\n      tag_40\n      swap2\n      swap1\n      tag_36\n      jump\t// in\n    tag_40:\n      mload(0x40)\n      dup1\n      swap2\n      sub\n      swap1\n      return\n        /* \"contracts/nomadapp/nomadapp.sol\":1347:1690  function cash_provider_confirm_transaction() external in_state(state.locked) only_cash_provider time_over() payable {... */\n    tag_9:\n      tag_41\n      tag_42\n      jump\t// in\n    tag_41:\n      stop\n        /* \"contracts/nomadapp/nomadapp.sol\":2468:2581  function get_time_left() public view time_over returns(uint256){... */\n    tag_10:\n      callvalue\n      dup1\n      iszero\n      tag_43\n      jumpi\n      0x00\n      dup1\n      revert\n    tag_43:\n      pop\n      tag_44\n      tag_45\n      jump\t// in\n    tag_44:\n      mload(0x40)\n      tag_46\n      swap2\n      swap1\n      tag_36\n      jump\t// in\n    tag_46:\n      mload(0x40)\n      dup1\n      swap2\n      sub\n      swap1\n      return\n        /* \"contracts/nomadapp/nomadapp.sol\":152:188  address payable public cash_provider */\n    tag_14:\n      0x02\n      0x00\n      swap1\n      sload\n      swap1\n      0x0100\n      exp\n      swap1\n      div\n      0xffffffffffffffffffffffffffffffffffffffff\n      and\n      dup2\n      jump\t// out\n        /* \"contracts/nomadapp/nomadapp.sol\":306:334  state public contract_status */\n    tag_19:\n      0x05\n      0x00\n      swap1\n      sload\n      swap1\n      0x0100\n      exp\n      swap1\n      div\n      0xff\n      and\n      dup2\n      jump\t// out\n        /* \"contracts/nomadapp/nomadapp.sol\":2001:2462  function abort() external {... */\n    tag_24:\n        /* \"contracts/nomadapp/nomadapp.sol\":2064:2072  end_time */\n      sload(0x04)\n        /* \"contracts/nomadapp/nomadapp.sol\":2045:2060  block.timestamp */\n      timestamp\n        /* \"contracts/nomadapp/nomadapp.sol\":2045:2072  block.timestamp >= end_time */\n      lt\n      iszero\n        /* \"contracts/nomadapp/nomadapp.sol\":2037:2117  require(block.timestamp >= end_time, \"The transaction still has time to finish\") */\n      tag_48\n      jumpi\n      mload(0x40)\n      0x08c379a000000000000000000000000000000000000000000000000000000000\n      dup2\n      mstore\n      0x04\n      add\n      tag_49\n      swap1\n      tag_50\n      jump\t// in\n    tag_49:\n      mload(0x40)\n      dup1\n      swap2\n      sub\n      swap1\n      revert\n    tag_48:\n        /* \"contracts/nomadapp/nomadapp.sol\":2158:2170  state.locked */\n      0x01\n        /* \"contracts/nomadapp/nomadapp.sol\":2139:2170  contract_status == state.locked */\n      0x03\n      dup2\n      gt\n      iszero\n      tag_51\n      jumpi\n      tag_52\n      tag_53\n      jump\t// in\n    tag_52:\n    tag_51:\n        /* \"contracts/nomadapp/nomadapp.sol\":2139:2154  contract_status */\n      0x05\n      0x00\n      swap1\n      sload\n      swap1\n      0x0100\n      exp\n      swap1\n      div\n      0xff\n      and\n        /* \"contracts/nomadapp/nomadapp.sol\":2139:2170  contract_status == state.locked */\n      0x03\n      dup2\n      gt\n      iszero\n      tag_54\n      jumpi\n      tag_55\n      tag_53\n      jump\t// in\n    tag_55:\n    tag_54:\n      sub\n        /* \"contracts/nomadapp/nomadapp.sol\":2136:2297  if(contract_status == state.locked){... */\n      tag_56\n      jumpi\n        /* \"contracts/nomadapp/nomadapp.sol\":2185:2191  nomada */\n      0x01\n      0x00\n      swap1\n      sload\n      swap1\n      0x0100\n      exp\n      swap1\n      div\n      0xffffffffffffffffffffffffffffffffffffffff\n      and\n        /* \"contracts/nomadapp/nomadapp.sol\":2185:2200  nomada.transfer */\n      0xffffffffffffffffffffffffffffffffffffffff\n      and\n        /* \"contracts/nomadapp/nomadapp.sol\":2185:2225  nomada.transfer(address(this).balance/2) */\n      0x08fc\n        /* \"contracts/nomadapp/nomadapp.sol\":2223:2224  2 */\n      0x02\n        /* \"contracts/nomadapp/nomadapp.sol\":2201:2222  address(this).balance */\n      selfbalance\n        /* \"contracts/nomadapp/nomadapp.sol\":2201:2224  address(this).balance/2 */\n      tag_57\n      swap2\n      swap1\n      tag_58\n      jump\t// in\n    tag_57:\n        /* \"contracts/nomadapp/nomadapp.sol\":2185:2225  nomada.transfer(address(this).balance/2) */\n      swap1\n      dup2\n      iszero\n      mul\n      swap1\n      mload(0x40)\n      0x00\n      mload(0x40)\n      dup1\n      dup4\n      sub\n      dup2\n      dup6\n      dup9\n      dup9\n      call\n      swap4\n      pop\n      pop\n      pop\n      pop\n      iszero\n      dup1\n      iszero\n      tag_60\n      jumpi\n      returndatasize\n      0x00\n      dup1\n      returndatacopy\n      revert(0x00, returndatasize)\n    tag_60:\n      pop\n        /* \"contracts/nomadapp/nomadapp.sol\":2239:2252  cash_provider */\n      0x02\n      0x00\n      swap1\n      sload\n      swap1\n      0x0100\n      exp\n      swap1\n      div\n      0xffffffffffffffffffffffffffffffffffffffff\n      and\n        /* \"contracts/nomadapp/nomadapp.sol\":2239:2261  cash_provider.transfer */\n      0xffffffffffffffffffffffffffffffffffffffff\n      and\n        /* \"contracts/nomadapp/nomadapp.sol\":2239:2286  cash_provider.transfer(address(this).balance/2) */\n      0x08fc\n        /* \"contracts/nomadapp/nomadapp.sol\":2284:2285  2 */\n      0x02\n        /* \"contracts/nomadapp/nomadapp.sol\":2262:2283  address(this).balance */\n      selfbalance\n        /* \"contracts/nomadapp/nomadapp.sol\":2262:2285  address(this).balance/2 */\n      tag_61\n      swap2\n      swap1\n      tag_58\n      jump\t// in\n    tag_61:\n        /* \"contracts/nomadapp/nomadapp.sol\":2239:2286  cash_provider.transfer(address(this).balance/2) */\n      swap1\n      dup2\n      iszero\n      mul\n      swap1\n      mload(0x40)\n      0x00\n      mload(0x40)\n      dup1\n      dup4\n      sub\n      dup2\n      dup6\n      dup9\n      dup9\n      call\n      swap4\n      pop\n      pop\n      pop\n      pop\n      iszero\n      dup1\n      iszero\n      tag_63\n      jumpi\n      returndatasize\n      0x00\n      dup1\n      returndatacopy\n      revert(0x00, returndatasize)\n    tag_63:\n      pop\n        /* \"contracts/nomadapp/nomadapp.sol\":2136:2297  if(contract_status == state.locked){... */\n    tag_56:\n        /* \"contracts/nomadapp/nomadapp.sol\":2328:2341  state.created */\n      0x00\n        /* \"contracts/nomadapp/nomadapp.sol\":2309:2341  contract_status == state.created */\n      0x03\n      dup2\n      gt\n      iszero\n      tag_64\n      jumpi\n      tag_65\n      tag_53\n      jump\t// in\n    tag_65:\n    tag_64:\n        /* \"contracts/nomadapp/nomadapp.sol\":2309:2324  contract_status */\n      0x05\n      0x00\n      swap1\n      sload\n      swap1\n      0x0100\n      exp\n      swap1\n      div\n      0xff\n      and\n        /* \"contracts/nomadapp/nomadapp.sol\":2309:2341  contract_status == state.created */\n      0x03\n      dup2\n      gt\n      iszero\n      tag_66\n      jumpi\n      tag_67\n      tag_53\n      jump\t// in\n    tag_67:\n    tag_66:\n      sub\n        /* \"contracts/nomadapp/nomadapp.sol\":2306:2405  if(contract_status == state.created){... */\n      tag_68\n      jumpi\n        /* \"contracts/nomadapp/nomadapp.sol\":2356:2362  nomada */\n      0x01\n      0x00\n      swap1\n      sload\n      swap1\n      0x0100\n      exp\n      swap1\n      div\n      0xffffffffffffffffffffffffffffffffffffffff\n      and\n        /* \"contracts/nomadapp/nomadapp.sol\":2356:2371  nomada.transfer */\n      0xffffffffffffffffffffffffffffffffffffffff\n      and\n        /* \"contracts/nomadapp/nomadapp.sol\":2356:2394  nomada.transfer(address(this).balance) */\n      0x08fc\n        /* \"contracts/nomadapp/nomadapp.sol\":2372:2393  address(this).balance */\n      selfbalance\n        /* \"contracts/nomadapp/nomadapp.sol\":2356:2394  nomada.transfer(address(this).balance) */\n      swap1\n      dup2\n      iszero\n      mul\n      swap1\n      mload(0x40)\n      0x00\n      mload(0x40)\n      dup1\n      dup4\n      sub\n      dup2\n      dup6\n      dup9\n      dup9\n      call\n      swap4\n      pop\n      pop\n      pop\n      pop\n      iszero\n      dup1\n      iszero\n      tag_70\n      jumpi\n      returndatasize\n      0x00\n      dup1\n      returndatacopy\n      revert(0x00, returndatasize)\n    tag_70:\n      pop\n        /* \"contracts/nomadapp/nomadapp.sol\":2306:2405  if(contract_status == state.created){... */\n    tag_68:\n        /* \"contracts/nomadapp/nomadapp.sol\":2432:2446  state.inactive */\n      0x03\n        /* \"contracts/nomadapp/nomadapp.sol\":2414:2429  contract_status */\n      0x05\n      0x00\n        /* \"contracts/nomadapp/nomadapp.sol\":2414:2446  contract_status = state.inactive */\n      0x0100\n      exp\n      dup2\n      sload\n      dup2\n      0xff\n      mul\n      not\n      and\n      swap1\n      dup4\n      0x03\n      dup2\n      gt\n      iszero\n      tag_71\n      jumpi\n      tag_72\n      tag_53\n      jump\t// in\n    tag_72:\n    tag_71:\n      mul\n      or\n      swap1\n      sstore\n      pop\n        /* \"contracts/nomadapp/nomadapp.sol\":2001:2462  function abort() external {... */\n      jump\t// out\n        /* \"contracts/nomadapp/nomadapp.sol\":117:146  address payable public nomada */\n    tag_27:\n      0x01\n      0x00\n      swap1\n      sload\n      swap1\n      0x0100\n      exp\n      swap1\n      div\n      0xffffffffffffffffffffffffffffffffffffffff\n      and\n      dup2\n      jump\t// out\n        /* \"contracts/nomadapp/nomadapp.sol\":1696:1994  function confirm_received() external only_cash_provider() in_state(state.locked) time_over() {... */\n    tag_31:\n        /* \"contracts/nomadapp/nomadapp.sol\":1007:1020  cash_provider */\n      0x02\n      0x00\n      swap1\n      sload\n      swap1\n      0x0100\n      exp\n      swap1\n      div\n      0xffffffffffffffffffffffffffffffffffffffff\n      and\n        /* \"contracts/nomadapp/nomadapp.sol\":993:1020  msg.sender != cash_provider */\n      0xffffffffffffffffffffffffffffffffffffffff\n      and\n        /* \"contracts/nomadapp/nomadapp.sol\":993:1003  msg.sender */\n      caller\n        /* \"contracts/nomadapp/nomadapp.sol\":993:1020  msg.sender != cash_provider */\n      0xffffffffffffffffffffffffffffffffffffffff\n      and\n      eq\n        /* \"contracts/nomadapp/nomadapp.sol\":990:1073  if(msg.sender != cash_provider){... */\n      tag_74\n      jumpi\n        /* \"contracts/nomadapp/nomadapp.sol\":1042:1062  just_cash_provider() */\n      mload(0x40)\n      0xef9f007300000000000000000000000000000000000000000000000000000000\n      dup2\n      mstore\n      0x04\n      add\n      mload(0x40)\n      dup1\n      swap2\n      sub\n      swap1\n      revert\n        /* \"contracts/nomadapp/nomadapp.sol\":990:1073  if(msg.sender != cash_provider){... */\n    tag_74:\n        /* \"contracts/nomadapp/nomadapp.sol\":1763:1775  state.locked */\n      0x01\n        /* \"contracts/nomadapp/nomadapp.sol\":1160:1166  _state */\n      dup1\n        /* \"contracts/nomadapp/nomadapp.sol\":1141:1166  contract_status != _state */\n      0x03\n      dup2\n      gt\n      iszero\n      tag_76\n      jumpi\n      tag_77\n      tag_53\n      jump\t// in\n    tag_77:\n    tag_76:\n        /* \"contracts/nomadapp/nomadapp.sol\":1141:1156  contract_status */\n      0x05\n      0x00\n      swap1\n      sload\n      swap1\n      0x0100\n      exp\n      swap1\n      div\n      0xff\n      and\n        /* \"contracts/nomadapp/nomadapp.sol\":1141:1166  contract_status != _state */\n      0x03\n      dup2\n      gt\n      iszero\n      tag_78\n      jumpi\n      tag_79\n      tag_53\n      jump\t// in\n    tag_79:\n    tag_78:\n      eq\n        /* \"contracts/nomadapp/nomadapp.sol\":1138:1214  if(contract_status != _state){... */\n      tag_80\n      jumpi\n        /* \"contracts/nomadapp/nomadapp.sol\":1188:1203  invalid_state() */\n      mload(0x40)\n      0x51f7639800000000000000000000000000000000000000000000000000000000\n      dup2\n      mstore\n      0x04\n      add\n      mload(0x40)\n      dup1\n      swap2\n      sub\n      swap1\n      revert\n        /* \"contracts/nomadapp/nomadapp.sol\":1138:1214  if(contract_status != _state){... */\n    tag_80:\n        /* \"contracts/nomadapp/nomadapp.sol\":1294:1302  end_time */\n      sload(0x04)\n        /* \"contracts/nomadapp/nomadapp.sol\":1275:1290  block.timestamp */\n      timestamp\n        /* \"contracts/nomadapp/nomadapp.sol\":1275:1302  block.timestamp <= end_time */\n      gt\n      iszero\n        /* \"contracts/nomadapp/nomadapp.sol\":1267:1323  require(block.timestamp <= end_time, \"The time is over\") */\n      tag_82\n      jumpi\n      mload(0x40)\n      0x08c379a000000000000000000000000000000000000000000000000000000000\n      dup2\n      mstore\n      0x04\n      add\n      tag_83\n      swap1\n      tag_84\n      jump\t// in\n    tag_83:\n      mload(0x40)\n      dup1\n      swap2\n      sub\n      swap1\n      revert\n    tag_82:\n        /* \"contracts/nomadapp/nomadapp.sol\":1903:1916  cash_provider */\n      0x02\n      0x00\n      swap1\n      sload\n      swap1\n      0x0100\n      exp\n      swap1\n      div\n      0xffffffffffffffffffffffffffffffffffffffff\n      and\n        /* \"contracts/nomadapp/nomadapp.sol\":1903:1925  cash_provider.transfer */\n      0xffffffffffffffffffffffffffffffffffffffff\n      and\n        /* \"contracts/nomadapp/nomadapp.sol\":1903:1946  cash_provider.transfer(2 * money_to_change) */\n      0x08fc\n        /* \"contracts/nomadapp/nomadapp.sol\":1930:1945  money_to_change */\n      sload(0x00)\n        /* \"contracts/nomadapp/nomadapp.sol\":1926:1927  2 */\n      0x02\n        /* \"contracts/nomadapp/nomadapp.sol\":1926:1945  2 * money_to_change */\n      tag_86\n      swap2\n      swap1\n      tag_87\n      jump\t// in\n    tag_86:\n        /* \"contracts/nomadapp/nomadapp.sol\":1903:1946  cash_provider.transfer(2 * money_to_change) */\n      swap1\n      dup2\n      iszero\n      mul\n      swap1\n      mload(0x40)\n      0x00\n      mload(0x40)\n      dup1\n      dup4\n      sub\n      dup2\n      dup6\n      dup9\n      dup9\n      call\n      swap4\n      pop\n      pop\n      pop\n      pop\n      iszero\n      dup1\n      iszero\n      tag_89\n      jumpi\n      returndatasize\n      0x00\n      dup1\n      returndatacopy\n      revert(0x00, returndatasize)\n    tag_89:\n      pop\n        /* \"contracts/nomadapp/nomadapp.sol\":1974:1987  state.release */\n      0x02\n        /* \"contracts/nomadapp/nomadapp.sol\":1956:1971  contract_status */\n      0x05\n      0x00\n        /* \"contracts/nomadapp/nomadapp.sol\":1956:1987  contract_status = state.release */\n      0x0100\n      exp\n      dup2\n      sload\n      dup2\n      0xff\n      mul\n      not\n      and\n      swap1\n      dup4\n      0x03\n      dup2\n      gt\n      iszero\n      tag_90\n      jumpi\n      tag_91\n      tag_53\n      jump\t// in\n    tag_91:\n    tag_90:\n      mul\n      or\n      swap1\n      sstore\n      pop\n        /* \"contracts/nomadapp/nomadapp.sol\":1082:1083  _ */\n      pop\n        /* \"contracts/nomadapp/nomadapp.sol\":1696:1994  function confirm_received() external only_cash_provider() in_state(state.locked) time_over() {... */\n      jump\t// out\n        /* \"contracts/nomadapp/nomadapp.sol\":2587:2683  function show_balance () public view returns(uint) {... */\n    tag_34:\n        /* \"contracts/nomadapp/nomadapp.sol\":2632:2636  uint */\n      0x00\n        /* \"contracts/nomadapp/nomadapp.sol\":2655:2676  address(this).balance */\n      selfbalance\n        /* \"contracts/nomadapp/nomadapp.sol\":2648:2676  return address(this).balance */\n      swap1\n      pop\n        /* \"contracts/nomadapp/nomadapp.sol\":2587:2683  function show_balance () public view returns(uint) {... */\n      swap1\n      jump\t// out\n        /* \"contracts/nomadapp/nomadapp.sol\":84:111  uint public money_to_change */\n    tag_39:\n      sload(0x00)\n      dup2\n      jump\t// out\n        /* \"contracts/nomadapp/nomadapp.sol\":1347:1690  function cash_provider_confirm_transaction() external in_state(state.locked) only_cash_provider time_over() payable {... */\n    tag_42:\n        /* \"contracts/nomadapp/nomadapp.sol\":1410:1422  state.locked */\n      0x01\n        /* \"contracts/nomadapp/nomadapp.sol\":1160:1166  _state */\n      dup1\n        /* \"contracts/nomadapp/nomadapp.sol\":1141:1166  contract_status != _state */\n      0x03\n      dup2\n      gt\n      iszero\n      tag_94\n      jumpi\n      tag_95\n      tag_53\n      jump\t// in\n    tag_95:\n    tag_94:\n        /* \"contracts/nomadapp/nomadapp.sol\":1141:1156  contract_status */\n      0x05\n      0x00\n      swap1\n      sload\n      swap1\n      0x0100\n      exp\n      swap1\n      div\n      0xff\n      and\n        /* \"contracts/nomadapp/nomadapp.sol\":1141:1166  contract_status != _state */\n      0x03\n      dup2\n      gt\n      iszero\n      tag_96\n      jumpi\n      tag_97\n      tag_53\n      jump\t// in\n    tag_97:\n    tag_96:\n      eq\n        /* \"contracts/nomadapp/nomadapp.sol\":1138:1214  if(contract_status != _state){... */\n      tag_98\n      jumpi\n        /* \"contracts/nomadapp/nomadapp.sol\":1188:1203  invalid_state() */\n      mload(0x40)\n      0x51f7639800000000000000000000000000000000000000000000000000000000\n      dup2\n      mstore\n      0x04\n      add\n      mload(0x40)\n      dup1\n      swap2\n      sub\n      swap1\n      revert\n        /* \"contracts/nomadapp/nomadapp.sol\":1138:1214  if(contract_status != _state){... */\n    tag_98:\n        /* \"contracts/nomadapp/nomadapp.sol\":1007:1020  cash_provider */\n      0x02\n      0x00\n      swap1\n      sload\n      swap1\n      0x0100\n      exp\n      swap1\n      div\n      0xffffffffffffffffffffffffffffffffffffffff\n      and\n        /* \"contracts/nomadapp/nomadapp.sol\":993:1020  msg.sender != cash_provider */\n      0xffffffffffffffffffffffffffffffffffffffff\n      and\n        /* \"contracts/nomadapp/nomadapp.sol\":993:1003  msg.sender */\n      caller\n        /* \"contracts/nomadapp/nomadapp.sol\":993:1020  msg.sender != cash_provider */\n      0xffffffffffffffffffffffffffffffffffffffff\n      and\n      eq\n        /* \"contracts/nomadapp/nomadapp.sol\":990:1073  if(msg.sender != cash_provider){... */\n      tag_100\n      jumpi\n        /* \"contracts/nomadapp/nomadapp.sol\":1042:1062  just_cash_provider() */\n      mload(0x40)\n      0xef9f007300000000000000000000000000000000000000000000000000000000\n      dup2\n      mstore\n      0x04\n      add\n      mload(0x40)\n      dup1\n      swap2\n      sub\n      swap1\n      revert\n        /* \"contracts/nomadapp/nomadapp.sol\":990:1073  if(msg.sender != cash_provider){... */\n    tag_100:\n        /* \"contracts/nomadapp/nomadapp.sol\":1294:1302  end_time */\n      sload(0x04)\n        /* \"contracts/nomadapp/nomadapp.sol\":1275:1290  block.timestamp */\n      timestamp\n        /* \"contracts/nomadapp/nomadapp.sol\":1275:1302  block.timestamp <= end_time */\n      gt\n      iszero\n        /* \"contracts/nomadapp/nomadapp.sol\":1267:1323  require(block.timestamp <= end_time, \"The time is over\") */\n      tag_102\n      jumpi\n      mload(0x40)\n      0x08c379a000000000000000000000000000000000000000000000000000000000\n      dup2\n      mstore\n      0x04\n      add\n      tag_103\n      swap1\n      tag_84\n      jump\t// in\n    tag_103:\n      mload(0x40)\n      dup1\n      swap2\n      sub\n      swap1\n      revert\n    tag_102:\n        /* \"contracts/nomadapp/nomadapp.sol\":1503:1518  money_to_change */\n      sload(0x00)\n        /* \"contracts/nomadapp/nomadapp.sol\":1490:1499  msg.value */\n      callvalue\n        /* \"contracts/nomadapp/nomadapp.sol\":1490:1518  msg.value == money_to_change */\n      eq\n        /* \"contracts/nomadapp/nomadapp.sol\":1482:1580  require(msg.value == money_to_change, \"Please send the same amount that the nomada, to do change\") */\n      tag_105\n      jumpi\n      mload(0x40)\n      0x08c379a000000000000000000000000000000000000000000000000000000000\n      dup2\n      mstore\n      0x04\n      add\n      tag_106\n      swap1\n      tag_107\n      jump\t// in\n    tag_106:\n      mload(0x40)\n      dup1\n      swap2\n      sub\n      swap1\n      revert\n    tag_105:\n        /* \"contracts/nomadapp/nomadapp.sol\":1623:1633  msg.sender */\n      caller\n        /* \"contracts/nomadapp/nomadapp.sol\":1599:1612  cash_provider */\n      0x02\n      0x00\n        /* \"contracts/nomadapp/nomadapp.sol\":1599:1634  cash_provider = payable(msg.sender) */\n      0x0100\n      exp\n      dup2\n      sload\n      dup2\n      0xffffffffffffffffffffffffffffffffffffffff\n      mul\n      not\n      and\n      swap1\n      dup4\n      0xffffffffffffffffffffffffffffffffffffffff\n      and\n      mul\n      or\n      swap1\n      sstore\n      pop\n        /* \"contracts/nomadapp/nomadapp.sol\":1671:1683  state.locked */\n      0x01\n        /* \"contracts/nomadapp/nomadapp.sol\":1653:1668  contract_status */\n      0x05\n      0x00\n        /* \"contracts/nomadapp/nomadapp.sol\":1653:1683  contract_status = state.locked */\n      0x0100\n      exp\n      dup2\n      sload\n      dup2\n      0xff\n      mul\n      not\n      and\n      swap1\n      dup4\n      0x03\n      dup2\n      gt\n      iszero\n      tag_108\n      jumpi\n      tag_109\n      tag_53\n      jump\t// in\n    tag_109:\n    tag_108:\n      mul\n      or\n      swap1\n      sstore\n      pop\n        /* \"contracts/nomadapp/nomadapp.sol\":1347:1690  function cash_provider_confirm_transaction() external in_state(state.locked) only_cash_provider time_over() payable {... */\n      pop\n      jump\t// out\n        /* \"contracts/nomadapp/nomadapp.sol\":2468:2581  function get_time_left() public view time_over returns(uint256){... */\n    tag_45:\n        /* \"contracts/nomadapp/nomadapp.sol\":2523:2530  uint256 */\n      0x00\n        /* \"contracts/nomadapp/nomadapp.sol\":1294:1302  end_time */\n      sload(0x04)\n        /* \"contracts/nomadapp/nomadapp.sol\":1275:1290  block.timestamp */\n      timestamp\n        /* \"contracts/nomadapp/nomadapp.sol\":1275:1302  block.timestamp <= end_time */\n      gt\n      iszero\n        /* \"contracts/nomadapp/nomadapp.sol\":1267:1323  require(block.timestamp <= end_time, \"The time is over\") */\n      tag_111\n      jumpi\n      mload(0x40)\n      0x08c379a000000000000000000000000000000000000000000000000000000000\n      dup2\n      mstore\n      0x04\n      add\n      tag_112\n      swap1\n      tag_84\n      jump\t// in\n    tag_112:\n      mload(0x40)\n      dup1\n      swap2\n      sub\n      swap1\n      revert\n    tag_111:\n        /* \"contracts/nomadapp/nomadapp.sol\":2559:2574  block.timestamp */\n      timestamp\n        /* \"contracts/nomadapp/nomadapp.sol\":2548:2556  end_time */\n      sload(0x04)\n        /* \"contracts/nomadapp/nomadapp.sol\":2548:2574  end_time - block.timestamp */\n      tag_114\n      swap2\n      swap1\n      tag_115\n      jump\t// in\n    tag_114:\n        /* \"contracts/nomadapp/nomadapp.sol\":2541:2574  return end_time - block.timestamp */\n      swap1\n      pop\n        /* \"contracts/nomadapp/nomadapp.sol\":2468:2581  function get_time_left() public view time_over returns(uint256){... */\n      swap1\n      jump\t// out\n        /* \"#utility.yul\":7:133   */\n    tag_116:\n        /* \"#utility.yul\":44:51   */\n      0x00\n        /* \"#utility.yul\":84:126   */\n      0xffffffffffffffffffffffffffffffffffffffff\n        /* \"#utility.yul\":77:82   */\n      dup3\n        /* \"#utility.yul\":73:127   */\n      and\n        /* \"#utility.yul\":62:127   */\n      swap1\n      pop\n        /* \"#utility.yul\":7:133   */\n      swap2\n      swap1\n      pop\n      jump\t// out\n        /* \"#utility.yul\":139:243   */\n    tag_117:\n        /* \"#utility.yul\":184:191   */\n      0x00\n        /* \"#utility.yul\":213:237   */\n      tag_137\n        /* \"#utility.yul\":231:236   */\n      dup3\n        /* \"#utility.yul\":213:237   */\n      tag_116\n      jump\t// in\n    tag_137:\n        /* \"#utility.yul\":202:237   */\n      swap1\n      pop\n        /* \"#utility.yul\":139:243   */\n      swap2\n      swap1\n      pop\n      jump\t// out\n        /* \"#utility.yul\":249:391   */\n    tag_118:\n        /* \"#utility.yul\":352:384   */\n      tag_139\n        /* \"#utility.yul\":378:383   */\n      dup2\n        /* \"#utility.yul\":352:384   */\n      tag_117\n      jump\t// in\n    tag_139:\n        /* \"#utility.yul\":347:350   */\n      dup3\n        /* \"#utility.yul\":340:385   */\n      mstore\n        /* \"#utility.yul\":249:391   */\n      pop\n      pop\n      jump\t// out\n        /* \"#utility.yul\":397:651   */\n    tag_16:\n        /* \"#utility.yul\":506:510   */\n      0x00\n        /* \"#utility.yul\":544:546   */\n      0x20\n        /* \"#utility.yul\":533:542   */\n      dup3\n        /* \"#utility.yul\":529:547   */\n      add\n        /* \"#utility.yul\":521:547   */\n      swap1\n      pop\n        /* \"#utility.yul\":557:644   */\n      tag_141\n        /* \"#utility.yul\":641:642   */\n      0x00\n        /* \"#utility.yul\":630:639   */\n      dup4\n        /* \"#utility.yul\":626:643   */\n      add\n        /* \"#utility.yul\":617:623   */\n      dup5\n        /* \"#utility.yul\":557:644   */\n      tag_118\n      jump\t// in\n    tag_141:\n        /* \"#utility.yul\":397:651   */\n      swap3\n      swap2\n      pop\n      pop\n      jump\t// out\n        /* \"#utility.yul\":657:837   */\n    tag_53:\n        /* \"#utility.yul\":705:782   */\n      0x4e487b7100000000000000000000000000000000000000000000000000000000\n        /* \"#utility.yul\":702:703   */\n      0x00\n        /* \"#utility.yul\":695:783   */\n      mstore\n        /* \"#utility.yul\":802:806   */\n      0x21\n        /* \"#utility.yul\":799:800   */\n      0x04\n        /* \"#utility.yul\":792:807   */\n      mstore\n        /* \"#utility.yul\":826:830   */\n      0x24\n        /* \"#utility.yul\":823:824   */\n      0x00\n        /* \"#utility.yul\":816:831   */\n      revert\n        /* \"#utility.yul\":843:956   */\n    tag_119:\n        /* \"#utility.yul\":924:925   */\n      0x04\n        /* \"#utility.yul\":917:922   */\n      dup2\n        /* \"#utility.yul\":914:926   */\n      lt\n        /* \"#utility.yul\":904:950   */\n      tag_144\n      jumpi\n        /* \"#utility.yul\":930:948   */\n      tag_145\n      tag_53\n      jump\t// in\n    tag_145:\n        /* \"#utility.yul\":904:950   */\n    tag_144:\n        /* \"#utility.yul\":843:956   */\n      pop\n      jump\t// out\n        /* \"#utility.yul\":962:1089   */\n    tag_120:\n        /* \"#utility.yul\":1007:1014   */\n      0x00\n        /* \"#utility.yul\":1036:1041   */\n      dup2\n        /* \"#utility.yul\":1025:1041   */\n      swap1\n      pop\n        /* \"#utility.yul\":1042:1083   */\n      tag_147\n        /* \"#utility.yul\":1077:1082   */\n      dup3\n        /* \"#utility.yul\":1042:1083   */\n      tag_119\n      jump\t// in\n    tag_147:\n        /* \"#utility.yul\":962:1089   */\n      swap2\n      swap1\n      pop\n      jump\t// out\n        /* \"#utility.yul\":1095:1222   */\n    tag_121:\n        /* \"#utility.yul\":1151:1160   */\n      0x00\n        /* \"#utility.yul\":1184:1216   */\n      tag_149\n        /* \"#utility.yul\":1210:1215   */\n      dup3\n        /* \"#utility.yul\":1184:1216   */\n      tag_120\n      jump\t// in\n    tag_149:\n        /* \"#utility.yul\":1171:1216   */\n      swap1\n      pop\n        /* \"#utility.yul\":1095:1222   */\n      swap2\n      swap1\n      pop\n      jump\t// out\n        /* \"#utility.yul\":1228:1371   */\n    tag_122:\n        /* \"#utility.yul\":1321:1364   */\n      tag_151\n        /* \"#utility.yul\":1358:1363   */\n      dup2\n        /* \"#utility.yul\":1321:1364   */\n      tag_121\n      jump\t// in\n    tag_151:\n        /* \"#utility.yul\":1316:1319   */\n      dup3\n        /* \"#utility.yul\":1309:1365   */\n      mstore\n        /* \"#utility.yul\":1228:1371   */\n      pop\n      pop\n      jump\t// out\n        /* \"#utility.yul\":1377:1611   */\n    tag_21:\n        /* \"#utility.yul\":1476:1480   */\n      0x00\n        /* \"#utility.yul\":1514:1516   */\n      0x20\n        /* \"#utility.yul\":1503:1512   */\n      dup3\n        /* \"#utility.yul\":1499:1517   */\n      add\n        /* \"#utility.yul\":1491:1517   */\n      swap1\n      pop\n        /* \"#utility.yul\":1527:1604   */\n      tag_153\n        /* \"#utility.yul\":1601:1602   */\n      0x00\n        /* \"#utility.yul\":1590:1599   */\n      dup4\n        /* \"#utility.yul\":1586:1603   */\n      add\n        /* \"#utility.yul\":1577:1583   */\n      dup5\n        /* \"#utility.yul\":1527:1604   */\n      tag_122\n      jump\t// in\n    tag_153:\n        /* \"#utility.yul\":1377:1611   */\n      swap3\n      swap2\n      pop\n      pop\n      jump\t// out\n        /* \"#utility.yul\":1617:1694   */\n    tag_123:\n        /* \"#utility.yul\":1654:1661   */\n      0x00\n        /* \"#utility.yul\":1683:1688   */\n      dup2\n        /* \"#utility.yul\":1672:1688   */\n      swap1\n      pop\n        /* \"#utility.yul\":1617:1694   */\n      swap2\n      swap1\n      pop\n      jump\t// out\n        /* \"#utility.yul\":1700:1818   */\n    tag_124:\n        /* \"#utility.yul\":1787:1811   */\n      tag_156\n        /* \"#utility.yul\":1805:1810   */\n      dup2\n        /* \"#utility.yul\":1787:1811   */\n      tag_123\n      jump\t// in\n    tag_156:\n        /* \"#utility.yul\":1782:1785   */\n      dup3\n        /* \"#utility.yul\":1775:1812   */\n      mstore\n        /* \"#utility.yul\":1700:1818   */\n      pop\n      pop\n      jump\t// out\n        /* \"#utility.yul\":1824:2046   */\n    tag_36:\n        /* \"#utility.yul\":1917:1921   */\n      0x00\n        /* \"#utility.yul\":1955:1957   */\n      0x20\n        /* \"#utility.yul\":1944:1953   */\n      dup3\n        /* \"#utility.yul\":1940:1958   */\n      add\n        /* \"#utility.yul\":1932:1958   */\n      swap1\n      pop\n        /* \"#utility.yul\":1968:2039   */\n      tag_158\n        /* \"#utility.yul\":2036:2037   */\n      0x00\n        /* \"#utility.yul\":2025:2034   */\n      dup4\n        /* \"#utility.yul\":2021:2038   */\n      add\n        /* \"#utility.yul\":2012:2018   */\n      dup5\n        /* \"#utility.yul\":1968:2039   */\n      tag_124\n      jump\t// in\n    tag_158:\n        /* \"#utility.yul\":1824:2046   */\n      swap3\n      swap2\n      pop\n      pop\n      jump\t// out\n        /* \"#utility.yul\":2052:2221   */\n    tag_125:\n        /* \"#utility.yul\":2136:2147   */\n      0x00\n        /* \"#utility.yul\":2170:2176   */\n      dup3\n        /* \"#utility.yul\":2165:2168   */\n      dup3\n        /* \"#utility.yul\":2158:2177   */\n      mstore\n        /* \"#utility.yul\":2210:2214   */\n      0x20\n        /* \"#utility.yul\":2205:2208   */\n      dup3\n        /* \"#utility.yul\":2201:2215   */\n      add\n        /* \"#utility.yul\":2186:2215   */\n      swap1\n      pop\n        /* \"#utility.yul\":2052:2221   */\n      swap3\n      swap2\n      pop\n      pop\n      jump\t// out\n        /* \"#utility.yul\":2227:2454   */\n    tag_126:\n        /* \"#utility.yul\":2367:2401   */\n      0x546865207472616e73616374696f6e207374696c6c206861732074696d652074\n        /* \"#utility.yul\":2363:2364   */\n      0x00\n        /* \"#utility.yul\":2355:2361   */\n      dup3\n        /* \"#utility.yul\":2351:2365   */\n      add\n        /* \"#utility.yul\":2344:2402   */\n      mstore\n        /* \"#utility.yul\":2436:2446   */\n      0x6f2066696e697368000000000000000000000000000000000000000000000000\n        /* \"#utility.yul\":2431:2433   */\n      0x20\n        /* \"#utility.yul\":2423:2429   */\n      dup3\n        /* \"#utility.yul\":2419:2434   */\n      add\n        /* \"#utility.yul\":2412:2447   */\n      mstore\n        /* \"#utility.yul\":2227:2454   */\n      pop\n      jump\t// out\n        /* \"#utility.yul\":2460:2826   */\n    tag_127:\n        /* \"#utility.yul\":2602:2605   */\n      0x00\n        /* \"#utility.yul\":2623:2690   */\n      tag_162\n        /* \"#utility.yul\":2687:2689   */\n      0x28\n        /* \"#utility.yul\":2682:2685   */\n      dup4\n        /* \"#utility.yul\":2623:2690   */\n      tag_125\n      jump\t// in\n    tag_162:\n        /* \"#utility.yul\":2616:2690   */\n      swap2\n      pop\n        /* \"#utility.yul\":2699:2792   */\n      tag_163\n        /* \"#utility.yul\":2788:2791   */\n      dup3\n        /* \"#utility.yul\":2699:2792   */\n      tag_126\n      jump\t// in\n    tag_163:\n        /* \"#utility.yul\":2817:2819   */\n      0x40\n        /* \"#utility.yul\":2812:2815   */\n      dup3\n        /* \"#utility.yul\":2808:2820   */\n      add\n        /* \"#utility.yul\":2801:2820   */\n      swap1\n      pop\n        /* \"#utility.yul\":2460:2826   */\n      swap2\n      swap1\n      pop\n      jump\t// out\n        /* \"#utility.yul\":2832:3251   */\n    tag_50:\n        /* \"#utility.yul\":2998:3002   */\n      0x00\n        /* \"#utility.yul\":3036:3038   */\n      0x20\n        /* \"#utility.yul\":3025:3034   */\n      dup3\n        /* \"#utility.yul\":3021:3039   */\n      add\n        /* \"#utility.yul\":3013:3039   */\n      swap1\n      pop\n        /* \"#utility.yul\":3085:3094   */\n      dup2\n        /* \"#utility.yul\":3079:3083   */\n      dup2\n        /* \"#utility.yul\":3075:3095   */\n      sub\n        /* \"#utility.yul\":3071:3072   */\n      0x00\n        /* \"#utility.yul\":3060:3069   */\n      dup4\n        /* \"#utility.yul\":3056:3073   */\n      add\n        /* \"#utility.yul\":3049:3096   */\n      mstore\n        /* \"#utility.yul\":3113:3244   */\n      tag_165\n        /* \"#utility.yul\":3239:3243   */\n      dup2\n        /* \"#utility.yul\":3113:3244   */\n      tag_127\n      jump\t// in\n    tag_165:\n        /* \"#utility.yul\":3105:3244   */\n      swap1\n      pop\n        /* \"#utility.yul\":2832:3251   */\n      swap2\n      swap1\n      pop\n      jump\t// out\n        /* \"#utility.yul\":3257:3437   */\n    tag_128:\n        /* \"#utility.yul\":3305:3382   */\n      0x4e487b7100000000000000000000000000000000000000000000000000000000\n        /* \"#utility.yul\":3302:3303   */\n      0x00\n        /* \"#utility.yul\":3295:3383   */\n      mstore\n        /* \"#utility.yul\":3402:3406   */\n      0x12\n        /* \"#utility.yul\":3399:3400   */\n      0x04\n        /* \"#utility.yul\":3392:3407   */\n      mstore\n        /* \"#utility.yul\":3426:3430   */\n      0x24\n        /* \"#utility.yul\":3423:3424   */\n      0x00\n        /* \"#utility.yul\":3416:3431   */\n      revert\n        /* \"#utility.yul\":3443:3623   */\n    tag_129:\n        /* \"#utility.yul\":3491:3568   */\n      0x4e487b7100000000000000000000000000000000000000000000000000000000\n        /* \"#utility.yul\":3488:3489   */\n      0x00\n        /* \"#utility.yul\":3481:3569   */\n      mstore\n        /* \"#utility.yul\":3588:3592   */\n      0x11\n        /* \"#utility.yul\":3585:3586   */\n      0x04\n        /* \"#utility.yul\":3578:3593   */\n      mstore\n        /* \"#utility.yul\":3612:3616   */\n      0x24\n        /* \"#utility.yul\":3609:3610   */\n      0x00\n        /* \"#utility.yul\":3602:3617   */\n      revert\n        /* \"#utility.yul\":3629:3814   */\n    tag_58:\n        /* \"#utility.yul\":3669:3670   */\n      0x00\n        /* \"#utility.yul\":3686:3706   */\n      tag_169\n        /* \"#utility.yul\":3704:3705   */\n      dup3\n        /* \"#utility.yul\":3686:3706   */\n      tag_123\n      jump\t// in\n    tag_169:\n        /* \"#utility.yul\":3681:3706   */\n      swap2\n      pop\n        /* \"#utility.yul\":3720:3740   */\n      tag_170\n        /* \"#utility.yul\":3738:3739   */\n      dup4\n        /* \"#utility.yul\":3720:3740   */\n      tag_123\n      jump\t// in\n    tag_170:\n        /* \"#utility.yul\":3715:3740   */\n      swap3\n      pop\n        /* \"#utility.yul\":3759:3760   */\n      dup3\n        /* \"#utility.yul\":3749:3784   */\n      tag_171\n      jumpi\n        /* \"#utility.yul\":3764:3782   */\n      tag_172\n      tag_128\n      jump\t// in\n    tag_172:\n        /* \"#utility.yul\":3749:3784   */\n    tag_171:\n        /* \"#utility.yul\":3806:3807   */\n      dup3\n        /* \"#utility.yul\":3803:3804   */\n      dup3\n        /* \"#utility.yul\":3799:3808   */\n      div\n        /* \"#utility.yul\":3794:3808   */\n      swap1\n      pop\n        /* \"#utility.yul\":3629:3814   */\n      swap3\n      swap2\n      pop\n      pop\n      jump\t// out\n        /* \"#utility.yul\":3820:3986   */\n    tag_130:\n        /* \"#utility.yul\":3960:3978   */\n      0x5468652074696d65206973206f76657200000000000000000000000000000000\n        /* \"#utility.yul\":3956:3957   */\n      0x00\n        /* \"#utility.yul\":3948:3954   */\n      dup3\n        /* \"#utility.yul\":3944:3958   */\n      add\n        /* \"#utility.yul\":3937:3979   */\n      mstore\n        /* \"#utility.yul\":3820:3986   */\n      pop\n      jump\t// out\n        /* \"#utility.yul\":3992:4358   */\n    tag_131:\n        /* \"#utility.yul\":4134:4137   */\n      0x00\n        /* \"#utility.yul\":4155:4222   */\n      tag_175\n        /* \"#utility.yul\":4219:4221   */\n      0x10\n        /* \"#utility.yul\":4214:4217   */\n      dup4\n        /* \"#utility.yul\":4155:4222   */\n      tag_125\n      jump\t// in\n    tag_175:\n        /* \"#utility.yul\":4148:4222   */\n      swap2\n      pop\n        /* \"#utility.yul\":4231:4324   */\n      tag_176\n        /* \"#utility.yul\":4320:4323   */\n      dup3\n        /* \"#utility.yul\":4231:4324   */\n      tag_130\n      jump\t// in\n    tag_176:\n        /* \"#utility.yul\":4349:4351   */\n      0x20\n        /* \"#utility.yul\":4344:4347   */\n      dup3\n        /* \"#utility.yul\":4340:4352   */\n      add\n        /* \"#utility.yul\":4333:4352   */\n      swap1\n      pop\n        /* \"#utility.yul\":3992:4358   */\n      swap2\n      swap1\n      pop\n      jump\t// out\n        /* \"#utility.yul\":4364:4783   */\n    tag_84:\n        /* \"#utility.yul\":4530:4534   */\n      0x00\n        /* \"#utility.yul\":4568:4570   */\n      0x20\n        /* \"#utility.yul\":4557:4566   */\n      dup3\n        /* \"#utility.yul\":4553:4571   */\n      add\n        /* \"#utility.yul\":4545:4571   */\n      swap1\n      pop\n        /* \"#utility.yul\":4617:4626   */\n      dup2\n        /* \"#utility.yul\":4611:4615   */\n      dup2\n        /* \"#utility.yul\":4607:4627   */\n      sub\n        /* \"#utility.yul\":4603:4604   */\n      0x00\n        /* \"#utility.yul\":4592:4601   */\n      dup4\n        /* \"#utility.yul\":4588:4605   */\n      add\n        /* \"#utility.yul\":4581:4628   */\n      mstore\n        /* \"#utility.yul\":4645:4776   */\n      tag_178\n        /* \"#utility.yul\":4771:4775   */\n      dup2\n        /* \"#utility.yul\":4645:4776   */\n      tag_131\n      jump\t// in\n    tag_178:\n        /* \"#utility.yul\":4637:4776   */\n      swap1\n      pop\n        /* \"#utility.yul\":4364:4783   */\n      swap2\n      swap1\n      pop\n      jump\t// out\n        /* \"#utility.yul\":4789:5199   */\n    tag_87:\n        /* \"#utility.yul\":4829:4836   */\n      0x00\n        /* \"#utility.yul\":4852:4872   */\n      tag_180\n        /* \"#utility.yul\":4870:4871   */\n      dup3\n        /* \"#utility.yul\":4852:4872   */\n      tag_123\n      jump\t// in\n    tag_180:\n        /* \"#utility.yul\":4847:4872   */\n      swap2\n      pop\n        /* \"#utility.yul\":4886:4906   */\n      tag_181\n        /* \"#utility.yul\":4904:4905   */\n      dup4\n        /* \"#utility.yul\":4886:4906   */\n      tag_123\n      jump\t// in\n    tag_181:\n        /* \"#utility.yul\":4881:4906   */\n      swap3\n      pop\n        /* \"#utility.yul\":4941:4942   */\n      dup3\n        /* \"#utility.yul\":4938:4939   */\n      dup3\n        /* \"#utility.yul\":4934:4943   */\n      mul\n        /* \"#utility.yul\":4963:4993   */\n      tag_182\n        /* \"#utility.yul\":4981:4992   */\n      dup2\n        /* \"#utility.yul\":4963:4993   */\n      tag_123\n      jump\t// in\n    tag_182:\n        /* \"#utility.yul\":4952:4993   */\n      swap2\n      pop\n        /* \"#utility.yul\":5142:5143   */\n      dup3\n        /* \"#utility.yul\":5133:5140   */\n      dup3\n        /* \"#utility.yul\":5129:5144   */\n      div\n        /* \"#utility.yul\":5126:5127   */\n      dup5\n        /* \"#utility.yul\":5123:5145   */\n      eq\n        /* \"#utility.yul\":5103:5104   */\n      dup4\n        /* \"#utility.yul\":5096:5105   */\n      iszero\n        /* \"#utility.yul\":5076:5159   */\n      or\n        /* \"#utility.yul\":5053:5192   */\n      tag_183\n      jumpi\n        /* \"#utility.yul\":5172:5190   */\n      tag_184\n      tag_129\n      jump\t// in\n    tag_184:\n        /* \"#utility.yul\":5053:5192   */\n    tag_183:\n        /* \"#utility.yul\":4837:5199   */\n      pop\n        /* \"#utility.yul\":4789:5199   */\n      swap3\n      swap2\n      pop\n      pop\n      jump\t// out\n        /* \"#utility.yul\":5205:5449   */\n    tag_132:\n        /* \"#utility.yul\":5345:5379   */\n      0x506c656173652073656e64207468652073616d6520616d6f756e742074686174\n        /* \"#utility.yul\":5341:5342   */\n      0x00\n        /* \"#utility.yul\":5333:5339   */\n      dup3\n        /* \"#utility.yul\":5329:5343   */\n      add\n        /* \"#utility.yul\":5322:5380   */\n      mstore\n        /* \"#utility.yul\":5414:5441   */\n      0x20746865206e6f6d6164612c20746f20646f206368616e676500000000000000\n        /* \"#utility.yul\":5409:5411   */\n      0x20\n        /* \"#utility.yul\":5401:5407   */\n      dup3\n        /* \"#utility.yul\":5397:5412   */\n      add\n        /* \"#utility.yul\":5390:5442   */\n      mstore\n        /* \"#utility.yul\":5205:5449   */\n      pop\n      jump\t// out\n        /* \"#utility.yul\":5455:5821   */\n    tag_133:\n        /* \"#utility.yul\":5597:5600   */\n      0x00\n        /* \"#utility.yul\":5618:5685   */\n      tag_187\n        /* \"#utility.yul\":5682:5684   */\n      0x39\n        /* \"#utility.yul\":5677:5680   */\n      dup4\n        /* \"#utility.yul\":5618:5685   */\n      tag_125\n      jump\t// in\n    tag_187:\n        /* \"#utility.yul\":5611:5685   */\n      swap2\n      pop\n        /* \"#utility.yul\":5694:5787   */\n      tag_188\n        /* \"#utility.yul\":5783:5786   */\n      dup3\n        /* \"#utility.yul\":5694:5787   */\n      tag_132\n      jump\t// in\n    tag_188:\n        /* \"#utility.yul\":5812:5814   */\n      0x40\n        /* \"#utility.yul\":5807:5810   */\n      dup3\n        /* \"#utility.yul\":5803:5815   */\n      add\n        /* \"#utility.yul\":5796:5815   */\n      swap1\n      pop\n        /* \"#utility.yul\":5455:5821   */\n      swap2\n      swap1\n      pop\n      jump\t// out\n        /* \"#utility.yul\":5827:6246   */\n    tag_107:\n        /* \"#utility.yul\":5993:5997   */\n      0x00\n        /* \"#utility.yul\":6031:6033   */\n      0x20\n        /* \"#utility.yul\":6020:6029   */\n      dup3\n        /* \"#utility.yul\":6016:6034   */\n      add\n        /* \"#utility.yul\":6008:6034   */\n      swap1\n      pop\n        /* \"#utility.yul\":6080:6089   */\n      dup2\n        /* \"#utility.yul\":6074:6078   */\n      dup2\n        /* \"#utility.yul\":6070:6090   */\n      sub\n        /* \"#utility.yul\":6066:6067   */\n      0x00\n        /* \"#utility.yul\":6055:6064   */\n      dup4\n        /* \"#utility.yul\":6051:6068   */\n      add\n        /* \"#utility.yul\":6044:6091   */\n      mstore\n        /* \"#utility.yul\":6108:6239   */\n      tag_190\n        /* \"#utility.yul\":6234:6238   */\n      dup2\n        /* \"#utility.yul\":6108:6239   */\n      tag_133\n      jump\t// in\n    tag_190:\n        /* \"#utility.yul\":6100:6239   */\n      swap1\n      pop\n        /* \"#utility.yul\":5827:6246   */\n      swap2\n      swap1\n      pop\n      jump\t// out\n        /* \"#utility.yul\":6252:6446   */\n    tag_115:\n        /* \"#utility.yul\":6292:6296   */\n      0x00\n        /* \"#utility.yul\":6312:6332   */\n      tag_192\n        /* \"#utility.yul\":6330:6331   */\n      dup3\n        /* \"#utility.yul\":6312:6332   */\n      tag_123\n      jump\t// in\n    tag_192:\n        /* \"#utility.yul\":6307:6332   */\n      swap2\n      pop\n        /* \"#utility.yul\":6346:6366   */\n      tag_193\n        /* \"#utility.yul\":6364:6365   */\n      dup4\n        /* \"#utility.yul\":6346:6366   */\n      tag_123\n      jump\t// in\n    tag_193:\n        /* \"#utility.yul\":6341:6366   */\n      swap3\n      pop\n        /* \"#utility.yul\":6390:6391   */\n      dup3\n        /* \"#utility.yul\":6387:6388   */\n      dup3\n        /* \"#utility.yul\":6383:6392   */\n      sub\n        /* \"#utility.yul\":6375:6392   */\n      swap1\n      pop\n        /* \"#utility.yul\":6414:6415   */\n      dup2\n        /* \"#utility.yul\":6408:6412   */\n      dup2\n        /* \"#utility.yul\":6405:6416   */\n      gt\n        /* \"#utility.yul\":6402:6439   */\n      iszero\n      tag_194\n      jumpi\n        /* \"#utility.yul\":6419:6437   */\n      tag_195\n      tag_129\n      jump\t// in\n    tag_195:\n        /* \"#utility.yul\":6402:6439   */\n    tag_194:\n        /* \"#utility.yul\":6252:6446   */\n      swap3\n      swap2\n      pop\n      pop\n      jump\t// out\n\n    auxdata: 0xa264697066735822122002b57c0a0d444ad52033a33f0fb8b80d8612ac1b13ff5a2fe09beb254c8422c264736f6c63430008120033\n}\n",
				"bytecode": {
					"linkReferences": {},
					"object": "608060405233600160006101000a81548173ffffffffffffffffffffffffffffffffffffffff021916908373ffffffffffffffffffffffffffffffffffffffff1602179055506000600560006101000a81548160ff0219169083600381111561006b5761006a610099565b5b0217905550346000819055504260038190555061708060035461008e9190610101565b600481905550610135565b7f4e487b7100000000000000000000000000000000000000000000000000000000600052602160045260246000fd5b6000819050919050565b7f4e487b7100000000000000000000000000000000000000000000000000000000600052601160045260246000fd5b600061010c826100c8565b9150610117836100c8565b925082820190508082111561012f5761012e6100d2565b5b92915050565b610c93806101446000396000f3fe6080604052600436106100865760003560e01c80638f9d1da9116100595780638f9d1da914610123578063946d01491461013a5780639f368e7314610165578063c4ae788b14610190578063e07f63a11461019a57610086565b80631af52a251461008b5780632b1bf48f146100b657806335a063b4146100e15780637602065f146100f8575b600080fd5b34801561009757600080fd5b506100a06101c5565b6040516100ad91906108d6565b60405180910390f35b3480156100c257600080fd5b506100cb6101eb565b6040516100d89190610968565b60405180910390f35b3480156100ed57600080fd5b506100f66101fe565b005b34801561010457600080fd5b5061010d61043b565b60405161011a91906108d6565b60405180910390f35b34801561012f57600080fd5b50610138610461565b005b34801561014657600080fd5b5061014f610640565b60405161015c919061099c565b60405180910390f35b34801561017157600080fd5b5061017a610648565b604051610187919061099c565b60405180910390f35b61019861064e565b005b3480156101a657600080fd5b506101af61083b565b6040516101bc919061099c565b60405180910390f35b600260009054906101000a900473ffffffffffffffffffffffffffffffffffffffff1681565b600560009054906101000a900460ff1681565b600454421015610243576040517f08c379a000000000000000000000000000000000000000000000000000000000815260040161023a90610a3a565b60405180910390fd5b60016003811115610257576102566108f1565b5b600560009054906101000a900460ff166003811115610279576102786108f1565b5b0361036957600160009054906101000a900473ffffffffffffffffffffffffffffffffffffffff1673ffffffffffffffffffffffffffffffffffffffff166108fc6002476102c79190610ab8565b9081150290604051600060405180830381858888f193505050501580156102f2573d6000803e3d6000fd5b50600260009054906101000a900473ffffffffffffffffffffffffffffffffffffffff1673ffffffffffffffffffffffffffffffffffffffff166108fc60024761033c9190610ab8565b9081150290604051600060405180830381858888f19350505050158015610367573d6000803e3d6000fd5b505b6000600381111561037d5761037c6108f1565b5b600560009054906101000a900460ff16600381111561039f5761039e6108f1565b5b0361040e57600160009054906101000a900473ffffffffffffffffffffffffffffffffffffffff1673ffffffffffffffffffffffffffffffffffffffff166108fc479081150290604051600060405180830381858888f1935050505015801561040c573d6000803e3d6000fd5b505b6003600560006101000a81548160ff02191690836003811115610434576104336108f1565b5b0217905550565b600160009054906101000a900473ffffffffffffffffffffffffffffffffffffffff1681565b600260009054906101000a900473ffffffffffffffffffffffffffffffffffffffff1673ffffffffffffffffffffffffffffffffffffffff163373ffffffffffffffffffffffffffffffffffffffff16146104e8576040517fef9f007300000000000000000000000000000000000000000000000000000000815260040160405180910390fd5b60018060038111156104fd576104fc6108f1565b5b600560009054906101000a900460ff16600381111561051f5761051e6108f1565b5b14610556576040517f51f7639800000000000000000000000000000000000000000000000000000000815260040160405180910390fd5b60045442111561059b576040517f08c379a000000000000000000000000000000000000000000000000000000000815260040161059290610b35565b60405180910390fd5b600260009054906101000a900473ffffffffffffffffffffffffffffffffffffffff1673ffffffffffffffffffffffffffffffffffffffff166108fc60005460026105e69190610b55565b9081150290604051600060405180830381858888f19350505050158015610611573d6000803e3d6000fd5b506002600560006101000a81548160ff02191690836003811115610638576106376108f1565b5b021790555050565b600047905090565b60005481565b6001806003811115610663576106626108f1565b5b600560009054906101000a900460ff166003811115610685576106846108f1565b5b146106bc576040517f51f7639800000000000000000000000000000000000000000000000000000000815260040160405180910390fd5b600260009054906101000a900473ffffffffffffffffffffffffffffffffffffffff1673ffffffffffffffffffffffffffffffffffffffff163373ffffffffffffffffffffffffffffffffffffffff1614610743576040517fef9f007300000000000000000000000000000000000000000000000000000000815260040160405180910390fd5b600454421115610788576040517f08c379a000000000000000000000000000000000000000000000000000000000815260040161077f90610b35565b60405180910390fd5b60005434146107cc576040517f08c379a00000000000000000000000000000000000000000000000000000000081526004016107c390610c09565b60405180910390fd5b33600260006101000a81548173ffffffffffffffffffffffffffffffffffffffff021916908373ffffffffffffffffffffffffffffffffffffffff1602179055506001600560006101000a81548160ff02191690836003811115610833576108326108f1565b5b021790555050565b6000600454421115610882576040517f08c379a000000000000000000000000000000000000000000000000000000000815260040161087990610b35565b60405180910390fd5b426004546108909190610c29565b905090565b600073ffffffffffffffffffffffffffffffffffffffff82169050919050565b60006108c082610895565b9050919050565b6108d0816108b5565b82525050565b60006020820190506108eb60008301846108c7565b92915050565b7f4e487b7100000000000000000000000000000000000000000000000000000000600052602160045260246000fd5b60048110610931576109306108f1565b5b50565b600081905061094282610920565b919050565b600061095282610934565b9050919050565b61096281610947565b82525050565b600060208201905061097d6000830184610959565b92915050565b6000819050919050565b61099681610983565b82525050565b60006020820190506109b1600083018461098d565b92915050565b600082825260208201905092915050565b7f546865207472616e73616374696f6e207374696c6c206861732074696d65207460008201527f6f2066696e697368000000000000000000000000000000000000000000000000602082015250565b6000610a246028836109b7565b9150610a2f826109c8565b604082019050919050565b60006020820190508181036000830152610a5381610a17565b9050919050565b7f4e487b7100000000000000000000000000000000000000000000000000000000600052601260045260246000fd5b7f4e487b7100000000000000000000000000000000000000000000000000000000600052601160045260246000fd5b6000610ac382610983565b9150610ace83610983565b925082610ade57610add610a5a565b5b828204905092915050565b7f5468652074696d65206973206f76657200000000000000000000000000000000600082015250565b6000610b1f6010836109b7565b9150610b2a82610ae9565b602082019050919050565b60006020820190508181036000830152610b4e81610b12565b9050919050565b6000610b6082610983565b9150610b6b83610983565b9250828202610b7981610983565b91508282048414831517610b9057610b8f610a89565b5b5092915050565b7f506c656173652073656e64207468652073616d6520616d6f756e74207468617460008201527f20746865206e6f6d6164612c20746f20646f206368616e676500000000000000602082015250565b6000610bf36039836109b7565b9150610bfe82610b97565b604082019050919050565b60006020820190508181036000830152610c2281610be6565b9050919050565b6000610c3482610983565b9150610c3f83610983565b9250828203905081811115610c5757610c56610a89565b5b9291505056fea264697066735822122002b57c0a0d444ad52033a33f0fb8b80d8612ac1b13ff5a2fe09beb254c8422c264736f6c63430008120033",
					"opcodes": "PUSH1 0x80 PUSH1 0x40 MSTORE CALLER PUSH1 0x1 PUSH1 0x0 PUSH2 0x100 EXP DUP2 SLOAD DUP2 PUSH20 0xFFFFFFFFFFFFFFFFFFFFFFFFFFFFFFFFFFFFFFFF MUL NOT AND SWAP1 DUP4 PUSH20 0xFFFFFFFFFFFFFFFFFFFFFFFFFFFFFFFFFFFFFFFF AND MUL OR SWAP1 SSTORE POP PUSH1 0x0 PUSH1 0x5 PUSH1 0x0 PUSH2 0x100 EXP DUP2 SLOAD DUP2 PUSH1 0xFF MUL NOT AND SWAP1 DUP4 PUSH1 0x3 DUP2 GT ISZERO PUSH2 0x6B JUMPI PUSH2 0x6A PUSH2 0x99 JUMP JUMPDEST JUMPDEST MUL OR SWAP1 SSTORE POP CALLVALUE PUSH1 0x0 DUP2 SWAP1 SSTORE POP TIMESTAMP PUSH1 0x3 DUP2 SWAP1 SSTORE POP PUSH2 0x7080 PUSH1 0x3 SLOAD PUSH2 0x8E SWAP2 SWAP1 PUSH2 0x101 JUMP JUMPDEST PUSH1 0x4 DUP2 SWAP1 SSTORE POP PUSH2 0x135 JUMP JUMPDEST PUSH32 0x4E487B7100000000000000000000000000000000000000000000000000000000 PUSH1 0x0 MSTORE PUSH1 0x21 PUSH1 0x4 MSTORE PUSH1 0x24 PUSH1 0x0 REVERT JUMPDEST PUSH1 0x0 DUP2 SWAP1 POP SWAP2 SWAP1 POP JUMP JUMPDEST PUSH32 0x4E487B7100000000000000000000000000000000000000000000000000000000 PUSH1 0x0 MSTORE PUSH1 0x11 PUSH1 0x4 MSTORE PUSH1 0x24 PUSH1 0x0 REVERT JUMPDEST PUSH1 0x0 PUSH2 0x10C DUP3 PUSH2 0xC8 JUMP JUMPDEST SWAP2 POP PUSH2 0x117 DUP4 PUSH2 0xC8 JUMP JUMPDEST SWAP3 POP DUP3 DUP3 ADD SWAP1 POP DUP1 DUP3 GT ISZERO PUSH2 0x12F JUMPI PUSH2 0x12E PUSH2 0xD2 JUMP JUMPDEST JUMPDEST SWAP3 SWAP2 POP POP JUMP JUMPDEST PUSH2 0xC93 DUP1 PUSH2 0x144 PUSH1 0x0 CODECOPY PUSH1 0x0 RETURN INVALID PUSH1 0x80 PUSH1 0x40 MSTORE PUSH1 0x4 CALLDATASIZE LT PUSH2 0x86 JUMPI PUSH1 0x0 CALLDATALOAD PUSH1 0xE0 SHR DUP1 PUSH4 0x8F9D1DA9 GT PUSH2 0x59 JUMPI DUP1 PUSH4 0x8F9D1DA9 EQ PUSH2 0x123 JUMPI DUP1 PUSH4 0x946D0149 EQ PUSH2 0x13A JUMPI DUP1 PUSH4 0x9F368E73 EQ PUSH2 0x165 JUMPI DUP1 PUSH4 0xC4AE788B EQ PUSH2 0x190 JUMPI DUP1 PUSH4 0xE07F63A1 EQ PUSH2 0x19A JUMPI PUSH2 0x86 JUMP JUMPDEST DUP1 PUSH4 0x1AF52A25 EQ PUSH2 0x8B JUMPI DUP1 PUSH4 0x2B1BF48F EQ PUSH2 0xB6 JUMPI DUP1 PUSH4 0x35A063B4 EQ PUSH2 0xE1 JUMPI DUP1 PUSH4 0x7602065F EQ PUSH2 0xF8 JUMPI JUMPDEST PUSH1 0x0 DUP1 REVERT JUMPDEST CALLVALUE DUP1 ISZERO PUSH2 0x97 JUMPI PUSH1 0x0 DUP1 REVERT JUMPDEST POP PUSH2 0xA0 PUSH2 0x1C5 JUMP JUMPDEST PUSH1 0x40 MLOAD PUSH2 0xAD SWAP2 SWAP1 PUSH2 0x8D6 JUMP JUMPDEST PUSH1 0x40 MLOAD DUP1 SWAP2 SUB SWAP1 RETURN JUMPDEST CALLVALUE DUP1 ISZERO PUSH2 0xC2 JUMPI PUSH1 0x0 DUP1 REVERT JUMPDEST POP PUSH2 0xCB PUSH2 0x1EB JUMP JUMPDEST PUSH1 0x40 MLOAD PUSH2 0xD8 SWAP2 SWAP1 PUSH2 0x968 JUMP JUMPDEST PUSH1 0x40 MLOAD DUP1 SWAP2 SUB SWAP1 RETURN JUMPDEST CALLVALUE DUP1 ISZERO PUSH2 0xED JUMPI PUSH1 0x0 DUP1 REVERT JUMPDEST POP PUSH2 0xF6 PUSH2 0x1FE JUMP JUMPDEST STOP JUMPDEST CALLVALUE DUP1 ISZERO PUSH2 0x104 JUMPI PUSH1 0x0 DUP1 REVERT JUMPDEST POP PUSH2 0x10D PUSH2 0x43B JUMP JUMPDEST PUSH1 0x40 MLOAD PUSH2 0x11A SWAP2 SWAP1 PUSH2 0x8D6 JUMP JUMPDEST PUSH1 0x40 MLOAD DUP1 SWAP2 SUB SWAP1 RETURN JUMPDEST CALLVALUE DUP1 ISZERO PUSH2 0x12F JUMPI PUSH1 0x0 DUP1 REVERT JUMPDEST POP PUSH2 0x138 PUSH2 0x461 JUMP JUMPDEST STOP JUMPDEST CALLVALUE DUP1 ISZERO PUSH2 0x146 JUMPI PUSH1 0x0 DUP1 REVERT JUMPDEST POP PUSH2 0x14F PUSH2 0x640 JUMP JUMPDEST PUSH1 0x40 MLOAD PUSH2 0x15C SWAP2 SWAP1 PUSH2 0x99C JUMP JUMPDEST PUSH1 0x40 MLOAD DUP1 SWAP2 SUB SWAP1 RETURN JUMPDEST CALLVALUE DUP1 ISZERO PUSH2 0x171 JUMPI PUSH1 0x0 DUP1 REVERT JUMPDEST POP PUSH2 0x17A PUSH2 0x648 JUMP JUMPDEST PUSH1 0x40 MLOAD PUSH2 0x187 SWAP2 SWAP1 PUSH2 0x99C JUMP JUMPDEST PUSH1 0x40 MLOAD DUP1 SWAP2 SUB SWAP1 RETURN JUMPDEST PUSH2 0x198 PUSH2 0x64E JUMP JUMPDEST STOP JUMPDEST CALLVALUE DUP1 ISZERO PUSH2 0x1A6 JUMPI PUSH1 0x0 DUP1 REVERT JUMPDEST POP PUSH2 0x1AF PUSH2 0x83B JUMP JUMPDEST PUSH1 0x40 MLOAD PUSH2 0x1BC SWAP2 SWAP1 PUSH2 0x99C JUMP JUMPDEST PUSH1 0x40 MLOAD DUP1 SWAP2 SUB SWAP1 RETURN JUMPDEST PUSH1 0x2 PUSH1 0x0 SWAP1 SLOAD SWAP1 PUSH2 0x100 EXP SWAP1 DIV PUSH20 0xFFFFFFFFFFFFFFFFFFFFFFFFFFFFFFFFFFFFFFFF AND DUP2 JUMP JUMPDEST PUSH1 0x5 PUSH1 0x0 SWAP1 SLOAD SWAP1 PUSH2 0x100 EXP SWAP1 DIV PUSH1 0xFF AND DUP2 JUMP JUMPDEST PUSH1 0x4 SLOAD TIMESTAMP LT ISZERO PUSH2 0x243 JUMPI PUSH1 0x40 MLOAD PUSH32 0x8C379A000000000000000000000000000000000000000000000000000000000 DUP2 MSTORE PUSH1 0x4 ADD PUSH2 0x23A SWAP1 PUSH2 0xA3A JUMP JUMPDEST PUSH1 0x40 MLOAD DUP1 SWAP2 SUB SWAP1 REVERT JUMPDEST PUSH1 0x1 PUSH1 0x3 DUP2 GT ISZERO PUSH2 0x257 JUMPI PUSH2 0x256 PUSH2 0x8F1 JUMP JUMPDEST JUMPDEST PUSH1 0x5 PUSH1 0x0 SWAP1 SLOAD SWAP1 PUSH2 0x100 EXP SWAP1 DIV PUSH1 0xFF AND PUSH1 0x3 DUP2 GT ISZERO PUSH2 0x279 JUMPI PUSH2 0x278 PUSH2 0x8F1 JUMP JUMPDEST JUMPDEST SUB PUSH2 0x369 JUMPI PUSH1 0x1 PUSH1 0x0 SWAP1 SLOAD SWAP1 PUSH2 0x100 EXP SWAP1 DIV PUSH20 0xFFFFFFFFFFFFFFFFFFFFFFFFFFFFFFFFFFFFFFFF AND PUSH20 0xFFFFFFFFFFFFFFFFFFFFFFFFFFFFFFFFFFFFFFFF AND PUSH2 0x8FC PUSH1 0x2 SELFBALANCE PUSH2 0x2C7 SWAP2 SWAP1 PUSH2 0xAB8 JUMP JUMPDEST SWAP1 DUP2 ISZERO MUL SWAP1 PUSH1 0x40 MLOAD PUSH1 0x0 PUSH1 0x40 MLOAD DUP1 DUP4 SUB DUP2 DUP6 DUP9 DUP9 CALL SWAP4 POP POP POP POP ISZERO DUP1 ISZERO PUSH2 0x2F2 JUMPI RETURNDATASIZE PUSH1 0x0 DUP1 RETURNDATACOPY RETURNDATASIZE PUSH1 0x0 REVERT JUMPDEST POP PUSH1 0x2 PUSH1 0x0 SWAP1 SLOAD SWAP1 PUSH2 0x100 EXP SWAP1 DIV PUSH20 0xFFFFFFFFFFFFFFFFFFFFFFFFFFFFFFFFFFFFFFFF AND PUSH20 0xFFFFFFFFFFFFFFFFFFFFFFFFFFFFFFFFFFFFFFFF AND PUSH2 0x8FC PUSH1 0x2 SELFBALANCE PUSH2 0x33C SWAP2 SWAP1 PUSH2 0xAB8 JUMP JUMPDEST SWAP1 DUP2 ISZERO MUL SWAP1 PUSH1 0x40 MLOAD PUSH1 0x0 PUSH1 0x40 MLOAD DUP1 DUP4 SUB DUP2 DUP6 DUP9 DUP9 CALL SWAP4 POP POP POP POP ISZERO DUP1 ISZERO PUSH2 0x367 JUMPI RETURNDATASIZE PUSH1 0x0 DUP1 RETURNDATACOPY RETURNDATASIZE PUSH1 0x0 REVERT JUMPDEST POP JUMPDEST PUSH1 0x0 PUSH1 0x3 DUP2 GT ISZERO PUSH2 0x37D JUMPI PUSH2 0x37C PUSH2 0x8F1 JUMP JUMPDEST JUMPDEST PUSH1 0x5 PUSH1 0x0 SWAP1 SLOAD SWAP1 PUSH2 0x100 EXP SWAP1 DIV PUSH1 0xFF AND PUSH1 0x3 DUP2 GT ISZERO PUSH2 0x39F JUMPI PUSH2 0x39E PUSH2 0x8F1 JUMP JUMPDEST JUMPDEST SUB PUSH2 0x40E JUMPI PUSH1 0x1 PUSH1 0x0 SWAP1 SLOAD SWAP1 PUSH2 0x100 EXP SWAP1 DIV PUSH20 0xFFFFFFFFFFFFFFFFFFFFFFFFFFFFFFFFFFFFFFFF AND PUSH20 0xFFFFFFFFFFFFFFFFFFFFFFFFFFFFFFFFFFFFFFFF AND PUSH2 0x8FC SELFBALANCE SWAP1 DUP2 ISZERO MUL SWAP1 PUSH1 0x40 MLOAD PUSH1 0x0 PUSH1 0x40 MLOAD DUP1 DUP4 SUB DUP2 DUP6 DUP9 DUP9 CALL SWAP4 POP POP POP POP ISZERO DUP1 ISZERO PUSH2 0x40C JUMPI RETURNDATASIZE PUSH1 0x0 DUP1 RETURNDATACOPY RETURNDATASIZE PUSH1 0x0 REVERT JUMPDEST POP JUMPDEST PUSH1 0x3 PUSH1 0x5 PUSH1 0x0 PUSH2 0x100 EXP DUP2 SLOAD DUP2 PUSH1 0xFF MUL NOT AND SWAP1 DUP4 PUSH1 0x3 DUP2 GT ISZERO PUSH2 0x434 JUMPI PUSH2 0x433 PUSH2 0x8F1 JUMP JUMPDEST JUMPDEST MUL OR SWAP1 SSTORE POP JUMP JUMPDEST PUSH1 0x1 PUSH1 0x0 SWAP1 SLOAD SWAP1 PUSH2 0x100 EXP SWAP1 DIV PUSH20 0xFFFFFFFFFFFFFFFFFFFFFFFFFFFFFFFFFFFFFFFF AND DUP2 JUMP JUMPDEST PUSH1 0x2 PUSH1 0x0 SWAP1 SLOAD SWAP1 PUSH2 0x100 EXP SWAP1 DIV PUSH20 0xFFFFFFFFFFFFFFFFFFFFFFFFFFFFFFFFFFFFFFFF AND PUSH20 0xFFFFFFFFFFFFFFFFFFFFFFFFFFFFFFFFFFFFFFFF AND CALLER PUSH20 0xFFFFFFFFFFFFFFFFFFFFFFFFFFFFFFFFFFFFFFFF AND EQ PUSH2 0x4E8 JUMPI PUSH1 0x40 MLOAD PUSH32 0xEF9F007300000000000000000000000000000000000000000000000000000000 DUP2 MSTORE PUSH1 0x4 ADD PUSH1 0x40 MLOAD DUP1 SWAP2 SUB SWAP1 REVERT JUMPDEST PUSH1 0x1 DUP1 PUSH1 0x3 DUP2 GT ISZERO PUSH2 0x4FD JUMPI PUSH2 0x4FC PUSH2 0x8F1 JUMP JUMPDEST JUMPDEST PUSH1 0x5 PUSH1 0x0 SWAP1 SLOAD SWAP1 PUSH2 0x100 EXP SWAP1 DIV PUSH1 0xFF AND PUSH1 0x3 DUP2 GT ISZERO PUSH2 0x51F JUMPI PUSH2 0x51E PUSH2 0x8F1 JUMP JUMPDEST JUMPDEST EQ PUSH2 0x556 JUMPI PUSH1 0x40 MLOAD PUSH32 0x51F7639800000000000000000000000000000000000000000000000000000000 DUP2 MSTORE PUSH1 0x4 ADD PUSH1 0x40 MLOAD DUP1 SWAP2 SUB SWAP1 REVERT JUMPDEST PUSH1 0x4 SLOAD TIMESTAMP GT ISZERO PUSH2 0x59B JUMPI PUSH1 0x40 MLOAD PUSH32 0x8C379A000000000000000000000000000000000000000000000000000000000 DUP2 MSTORE PUSH1 0x4 ADD PUSH2 0x592 SWAP1 PUSH2 0xB35 JUMP JUMPDEST PUSH1 0x40 MLOAD DUP1 SWAP2 SUB SWAP1 REVERT JUMPDEST PUSH1 0x2 PUSH1 0x0 SWAP1 SLOAD SWAP1 PUSH2 0x100 EXP SWAP1 DIV PUSH20 0xFFFFFFFFFFFFFFFFFFFFFFFFFFFFFFFFFFFFFFFF AND PUSH20 0xFFFFFFFFFFFFFFFFFFFFFFFFFFFFFFFFFFFFFFFF AND PUSH2 0x8FC PUSH1 0x0 SLOAD PUSH1 0x2 PUSH2 0x5E6 SWAP2 SWAP1 PUSH2 0xB55 JUMP JUMPDEST SWAP1 DUP2 ISZERO MUL SWAP1 PUSH1 0x40 MLOAD PUSH1 0x0 PUSH1 0x40 MLOAD DUP1 DUP4 SUB DUP2 DUP6 DUP9 DUP9 CALL SWAP4 POP POP POP POP ISZERO DUP1 ISZERO PUSH2 0x611 JUMPI RETURNDATASIZE PUSH1 0x0 DUP1 RETURNDATACOPY RETURNDATASIZE PUSH1 0x0 REVERT JUMPDEST POP PUSH1 0x2 PUSH1 0x5 PUSH1 0x0 PUSH2 0x100 EXP DUP2 SLOAD DUP2 PUSH1 0xFF MUL NOT AND SWAP1 DUP4 PUSH1 0x3 DUP2 GT ISZERO PUSH2 0x638 JUMPI PUSH2 0x637 PUSH2 0x8F1 JUMP JUMPDEST JUMPDEST MUL OR SWAP1 SSTORE POP POP JUMP JUMPDEST PUSH1 0x0 SELFBALANCE SWAP1 POP SWAP1 JUMP JUMPDEST PUSH1 0x0 SLOAD DUP2 JUMP JUMPDEST PUSH1 0x1 DUP1 PUSH1 0x3 DUP2 GT ISZERO PUSH2 0x663 JUMPI PUSH2 0x662 PUSH2 0x8F1 JUMP JUMPDEST JUMPDEST PUSH1 0x5 PUSH1 0x0 SWAP1 SLOAD SWAP1 PUSH2 0x100 EXP SWAP1 DIV PUSH1 0xFF AND PUSH1 0x3 DUP2 GT ISZERO PUSH2 0x685 JUMPI PUSH2 0x684 PUSH2 0x8F1 JUMP JUMPDEST JUMPDEST EQ PUSH2 0x6BC JUMPI PUSH1 0x40 MLOAD PUSH32 0x51F7639800000000000000000000000000000000000000000000000000000000 DUP2 MSTORE PUSH1 0x4 ADD PUSH1 0x40 MLOAD DUP1 SWAP2 SUB SWAP1 REVERT JUMPDEST PUSH1 0x2 PUSH1 0x0 SWAP1 SLOAD SWAP1 PUSH2 0x100 EXP SWAP1 DIV PUSH20 0xFFFFFFFFFFFFFFFFFFFFFFFFFFFFFFFFFFFFFFFF AND PUSH20 0xFFFFFFFFFFFFFFFFFFFFFFFFFFFFFFFFFFFFFFFF AND CALLER PUSH20 0xFFFFFFFFFFFFFFFFFFFFFFFFFFFFFFFFFFFFFFFF AND EQ PUSH2 0x743 JUMPI PUSH1 0x40 MLOAD PUSH32 0xEF9F007300000000000000000000000000000000000000000000000000000000 DUP2 MSTORE PUSH1 0x4 ADD PUSH1 0x40 MLOAD DUP1 SWAP2 SUB SWAP1 REVERT JUMPDEST PUSH1 0x4 SLOAD TIMESTAMP GT ISZERO PUSH2 0x788 JUMPI PUSH1 0x40 MLOAD PUSH32 0x8C379A000000000000000000000000000000000000000000000000000000000 DUP2 MSTORE PUSH1 0x4 ADD PUSH2 0x77F SWAP1 PUSH2 0xB35 JUMP JUMPDEST PUSH1 0x40 MLOAD DUP1 SWAP2 SUB SWAP1 REVERT JUMPDEST PUSH1 0x0 SLOAD CALLVALUE EQ PUSH2 0x7CC JUMPI PUSH1 0x40 MLOAD PUSH32 0x8C379A000000000000000000000000000000000000000000000000000000000 DUP2 MSTORE PUSH1 0x4 ADD PUSH2 0x7C3 SWAP1 PUSH2 0xC09 JUMP JUMPDEST PUSH1 0x40 MLOAD DUP1 SWAP2 SUB SWAP1 REVERT JUMPDEST CALLER PUSH1 0x2 PUSH1 0x0 PUSH2 0x100 EXP DUP2 SLOAD DUP2 PUSH20 0xFFFFFFFFFFFFFFFFFFFFFFFFFFFFFFFFFFFFFFFF MUL NOT AND SWAP1 DUP4 PUSH20 0xFFFFFFFFFFFFFFFFFFFFFFFFFFFFFFFFFFFFFFFF AND MUL OR SWAP1 SSTORE POP PUSH1 0x1 PUSH1 0x5 PUSH1 0x0 PUSH2 0x100 EXP DUP2 SLOAD DUP2 PUSH1 0xFF MUL NOT AND SWAP1 DUP4 PUSH1 0x3 DUP2 GT ISZERO PUSH2 0x833 JUMPI PUSH2 0x832 PUSH2 0x8F1 JUMP JUMPDEST JUMPDEST MUL OR SWAP1 SSTORE POP POP JUMP JUMPDEST PUSH1 0x0 PUSH1 0x4 SLOAD TIMESTAMP GT ISZERO PUSH2 0x882 JUMPI PUSH1 0x40 MLOAD PUSH32 0x8C379A000000000000000000000000000000000000000000000000000000000 DUP2 MSTORE PUSH1 0x4 ADD PUSH2 0x879 SWAP1 PUSH2 0xB35 JUMP JUMPDEST PUSH1 0x40 MLOAD DUP1 SWAP2 SUB SWAP1 REVERT JUMPDEST TIMESTAMP PUSH1 0x4 SLOAD PUSH2 0x890 SWAP2 SWAP1 PUSH2 0xC29 JUMP JUMPDEST SWAP1 POP SWAP1 JUMP JUMPDEST PUSH1 0x0 PUSH20 0xFFFFFFFFFFFFFFFFFFFFFFFFFFFFFFFFFFFFFFFF DUP3 AND SWAP1 POP SWAP2 SWAP1 POP JUMP JUMPDEST PUSH1 0x0 PUSH2 0x8C0 DUP3 PUSH2 0x895 JUMP JUMPDEST SWAP1 POP SWAP2 SWAP1 POP JUMP JUMPDEST PUSH2 0x8D0 DUP2 PUSH2 0x8B5 JUMP JUMPDEST DUP3 MSTORE POP POP JUMP JUMPDEST PUSH1 0x0 PUSH1 0x20 DUP3 ADD SWAP1 POP PUSH2 0x8EB PUSH1 0x0 DUP4 ADD DUP5 PUSH2 0x8C7 JUMP JUMPDEST SWAP3 SWAP2 POP POP JUMP JUMPDEST PUSH32 0x4E487B7100000000000000000000000000000000000000000000000000000000 PUSH1 0x0 MSTORE PUSH1 0x21 PUSH1 0x4 MSTORE PUSH1 0x24 PUSH1 0x0 REVERT JUMPDEST PUSH1 0x4 DUP2 LT PUSH2 0x931 JUMPI PUSH2 0x930 PUSH2 0x8F1 JUMP JUMPDEST JUMPDEST POP JUMP JUMPDEST PUSH1 0x0 DUP2 SWAP1 POP PUSH2 0x942 DUP3 PUSH2 0x920 JUMP JUMPDEST SWAP2 SWAP1 POP JUMP JUMPDEST PUSH1 0x0 PUSH2 0x952 DUP3 PUSH2 0x934 JUMP JUMPDEST SWAP1 POP SWAP2 SWAP1 POP JUMP JUMPDEST PUSH2 0x962 DUP2 PUSH2 0x947 JUMP JUMPDEST DUP3 MSTORE POP POP JUMP JUMPDEST PUSH1 0x0 PUSH1 0x20 DUP3 ADD SWAP1 POP PUSH2 0x97D PUSH1 0x0 DUP4 ADD DUP5 PUSH2 0x959 JUMP JUMPDEST SWAP3 SWAP2 POP POP JUMP JUMPDEST PUSH1 0x0 DUP2 SWAP1 POP SWAP2 SWAP1 POP JUMP JUMPDEST PUSH2 0x996 DUP2 PUSH2 0x983 JUMP JUMPDEST DUP3 MSTORE POP POP JUMP JUMPDEST PUSH1 0x0 PUSH1 0x20 DUP3 ADD SWAP1 POP PUSH2 0x9B1 PUSH1 0x0 DUP4 ADD DUP5 PUSH2 0x98D JUMP JUMPDEST SWAP3 SWAP2 POP POP JUMP JUMPDEST PUSH1 0x0 DUP3 DUP3 MSTORE PUSH1 0x20 DUP3 ADD SWAP1 POP SWAP3 SWAP2 POP POP JUMP JUMPDEST PUSH32 0x546865207472616E73616374696F6E207374696C6C206861732074696D652074 PUSH1 0x0 DUP3 ADD MSTORE PUSH32 0x6F2066696E697368000000000000000000000000000000000000000000000000 PUSH1 0x20 DUP3 ADD MSTORE POP JUMP JUMPDEST PUSH1 0x0 PUSH2 0xA24 PUSH1 0x28 DUP4 PUSH2 0x9B7 JUMP JUMPDEST SWAP2 POP PUSH2 0xA2F DUP3 PUSH2 0x9C8 JUMP JUMPDEST PUSH1 0x40 DUP3 ADD SWAP1 POP SWAP2 SWAP1 POP JUMP JUMPDEST PUSH1 0x0 PUSH1 0x20 DUP3 ADD SWAP1 POP DUP2 DUP2 SUB PUSH1 0x0 DUP4 ADD MSTORE PUSH2 0xA53 DUP2 PUSH2 0xA17 JUMP JUMPDEST SWAP1 POP SWAP2 SWAP1 POP JUMP JUMPDEST PUSH32 0x4E487B7100000000000000000000000000000000000000000000000000000000 PUSH1 0x0 MSTORE PUSH1 0x12 PUSH1 0x4 MSTORE PUSH1 0x24 PUSH1 0x0 REVERT JUMPDEST PUSH32 0x4E487B7100000000000000000000000000000000000000000000000000000000 PUSH1 0x0 MSTORE PUSH1 0x11 PUSH1 0x4 MSTORE PUSH1 0x24 PUSH1 0x0 REVERT JUMPDEST PUSH1 0x0 PUSH2 0xAC3 DUP3 PUSH2 0x983 JUMP JUMPDEST SWAP2 POP PUSH2 0xACE DUP4 PUSH2 0x983 JUMP JUMPDEST SWAP3 POP DUP3 PUSH2 0xADE JUMPI PUSH2 0xADD PUSH2 0xA5A JUMP JUMPDEST JUMPDEST DUP3 DUP3 DIV SWAP1 POP SWAP3 SWAP2 POP POP JUMP JUMPDEST PUSH32 0x5468652074696D65206973206F76657200000000000000000000000000000000 PUSH1 0x0 DUP3 ADD MSTORE POP JUMP JUMPDEST PUSH1 0x0 PUSH2 0xB1F PUSH1 0x10 DUP4 PUSH2 0x9B7 JUMP JUMPDEST SWAP2 POP PUSH2 0xB2A DUP3 PUSH2 0xAE9 JUMP JUMPDEST PUSH1 0x20 DUP3 ADD SWAP1 POP SWAP2 SWAP1 POP JUMP JUMPDEST PUSH1 0x0 PUSH1 0x20 DUP3 ADD SWAP1 POP DUP2 DUP2 SUB PUSH1 0x0 DUP4 ADD MSTORE PUSH2 0xB4E DUP2 PUSH2 0xB12 JUMP JUMPDEST SWAP1 POP SWAP2 SWAP1 POP JUMP JUMPDEST PUSH1 0x0 PUSH2 0xB60 DUP3 PUSH2 0x983 JUMP JUMPDEST SWAP2 POP PUSH2 0xB6B DUP4 PUSH2 0x983 JUMP JUMPDEST SWAP3 POP DUP3 DUP3 MUL PUSH2 0xB79 DUP2 PUSH2 0x983 JUMP JUMPDEST SWAP2 POP DUP3 DUP3 DIV DUP5 EQ DUP4 ISZERO OR PUSH2 0xB90 JUMPI PUSH2 0xB8F PUSH2 0xA89 JUMP JUMPDEST JUMPDEST POP SWAP3 SWAP2 POP POP JUMP JUMPDEST PUSH32 0x506C656173652073656E64207468652073616D6520616D6F756E742074686174 PUSH1 0x0 DUP3 ADD MSTORE PUSH32 0x20746865206E6F6D6164612C20746F20646F206368616E676500000000000000 PUSH1 0x20 DUP3 ADD MSTORE POP JUMP JUMPDEST PUSH1 0x0 PUSH2 0xBF3 PUSH1 0x39 DUP4 PUSH2 0x9B7 JUMP JUMPDEST SWAP2 POP PUSH2 0xBFE DUP3 PUSH2 0xB97 JUMP JUMPDEST PUSH1 0x40 DUP3 ADD SWAP1 POP SWAP2 SWAP1 POP JUMP JUMPDEST PUSH1 0x0 PUSH1 0x20 DUP3 ADD SWAP1 POP DUP2 DUP2 SUB PUSH1 0x0 DUP4 ADD MSTORE PUSH2 0xC22 DUP2 PUSH2 0xBE6 JUMP JUMPDEST SWAP1 POP SWAP2 SWAP1 POP JUMP JUMPDEST PUSH1 0x0 PUSH2 0xC34 DUP3 PUSH2 0x983 JUMP JUMPDEST SWAP2 POP PUSH2 0xC3F DUP4 PUSH2 0x983 JUMP JUMPDEST SWAP3 POP DUP3 DUP3 SUB SWAP1 POP DUP2 DUP2 GT ISZERO PUSH2 0xC57 JUMPI PUSH2 0xC56 PUSH2 0xA89 JUMP JUMPDEST JUMPDEST SWAP3 SWAP2 POP POP JUMP INVALID LOG2 PUSH5 0x6970667358 0x22 SLT KECCAK256 MUL 0xB5 PUSH29 0xA0D444AD52033A33F0FB8B80D8612AC1B13FF5A2FE09BEB254C8422C2 PUSH5 0x736F6C6343 STOP ADDMOD SLT STOP CALLER "
				},
				"gasEstimates": {
					"creation": {
						"codeDepositCost": "643800",
						"executionCost": "infinite",
						"totalCost": "infinite"
					},
					"external": {
						"abort()": "infinite",
						"cash_provider()": "2515",
						"cash_provider_confirm_transaction()": "57372",
						"confirm_received()": "infinite",
						"contract_status()": "2583",
						"get_time_left()": "infinite",
						"money_to_change()": "2473",
						"nomada()": "2581",
						"show_balance()": "361"
					}
				},
				"methodIdentifiers": {
					"abort()": "35a063b4",
					"cash_provider()": "1af52a25",
					"cash_provider_confirm_transaction()": "c4ae788b",
					"confirm_received()": "8f9d1da9",
					"contract_status()": "2b1bf48f",
					"get_time_left()": "e07f63a1",
					"money_to_change()": "9f368e73",
					"nomada()": "7602065f",
					"show_balance()": "946d0149"
				}
			},
			"storageLayout": {
				"storage": [
					{
						"astId": 3,
						"contract": "contracts/nomadapp/nomadapp.sol:nomadapp",
						"label": "money_to_change",
						"offset": 0,
						"slot": "0",
						"type": "t_uint256"
					},
					{
						"astId": 5,
						"contract": "contracts/nomadapp/nomadapp.sol:nomadapp",
						"label": "nomada",
						"offset": 0,
						"slot": "1",
						"type": "t_address_payable"
					},
					{
						"astId": 7,
						"contract": "contracts/nomadapp/nomadapp.sol:nomadapp",
						"label": "cash_provider",
						"offset": 0,
						"slot": "2",
						"type": "t_address_payable"
					},
					{
						"astId": 9,
						"contract": "contracts/nomadapp/nomadapp.sol:nomadapp",
						"label": "start_time",
						"offset": 0,
						"slot": "3",
						"type": "t_uint256"
					},
					{
						"astId": 11,
						"contract": "contracts/nomadapp/nomadapp.sol:nomadapp",
						"label": "end_time",
						"offset": 0,
						"slot": "4",
						"type": "t_uint256"
					},
					{
						"astId": 19,
						"contract": "contracts/nomadapp/nomadapp.sol:nomadapp",
						"label": "contract_status",
						"offset": 0,
						"slot": "5",
						"type": "t_enum(state)16"
					}
				],
				"types": {
					"t_address_payable": {
						"encoding": "inplace",
						"label": "address payable",
						"numberOfBytes": "20"
					},
					"t_enum(state)16": {
						"encoding": "inplace",
						"label": "enum nomadapp.state",
						"numberOfBytes": "1"
					},
					"t_uint256": {
						"encoding": "inplace",
						"label": "uint256",
						"numberOfBytes": "32"
					}
				}
			},
			"userdoc": {
				"errors": {
					"invalid_state()": [
						{
							"notice": "The function cannot be called at the current state."
						}
					],
					"just_cash_provider()": [
						{
							"notice": "Only the cash provider can call this function"
						}
					],
					"just_nomada()": [
						{
							"notice": "Only the nomada can call this function"
						}
					]
				},
				"kind": "user",
				"methods": {},
				"version": 1
			}
		}
	}
}